{
  "_format": "hh-sol-artifact-1",
  "contractName": "SimpleSavingCircle",
  "sourceName": "contracts/SimpleSavingCircle.sol",
  "abi": [
    {
      "inputs": [],
      "stateMutability": "nonpayable",
      "type": "constructor"
    },
    {
      "anonymous": false,
      "inputs": [
        {
          "indexed": false,
          "internalType": "bytes32",
          "name": "circleId",
          "type": "bytes32"
        }
      ],
      "name": "AllRoundsCompleted",
      "type": "event"
    },
    {
      "anonymous": false,
      "inputs": [
        {
          "indexed": false,
          "internalType": "bytes32",
          "name": "circleId",
          "type": "bytes32"
        }
      ],
      "name": "CompleteCircle",
      "type": "event"
    },
    {
      "anonymous": false,
      "inputs": [
        {
          "indexed": false,
          "internalType": "bytes32",
          "name": "circleId",
          "type": "bytes32"
        },
        {
          "indexed": false,
          "internalType": "uint256",
          "name": "totalFunds",
          "type": "uint256"
        },
        {
          "indexed": false,
          "internalType": "address",
          "name": "participantAddress",
          "type": "address"
        },
        {
          "indexed": false,
          "internalType": "uint256",
          "name": "sentFunds",
          "type": "uint256"
        }
      ],
      "name": "EmergencyWithdrawal",
      "type": "event"
    },
    {
      "anonymous": false,
      "inputs": [
        {
          "indexed": false,
          "internalType": "bytes32",
          "name": "circleId",
          "type": "bytes32"
        },
        {
          "indexed": false,
          "internalType": "uint256",
          "name": "amountPaid",
          "type": "uint256"
        }
      ],
      "name": "EveryonePaid",
      "type": "event"
    },
    {
      "anonymous": false,
      "inputs": [
        {
          "indexed": false,
          "internalType": "bytes32",
          "name": "circleId",
          "type": "bytes32"
        }
      ],
      "name": "EveryonePaidDeposit",
      "type": "event"
    },
    {
      "anonymous": false,
      "inputs": [
        {
          "indexed": false,
          "internalType": "bytes32",
          "name": "circleId",
          "type": "bytes32"
        },
        {
          "indexed": false,
          "internalType": "string",
          "name": "circleCid",
          "type": "string"
        },
        {
          "indexed": false,
          "internalType": "address",
          "name": "host",
          "type": "address"
        },
        {
          "indexed": false,
          "internalType": "uint256",
          "name": "payTime",
          "type": "uint256"
        },
        {
          "indexed": false,
          "internalType": "uint256",
          "name": "saveAmount",
          "type": "uint256"
        },
        {
          "indexed": false,
          "internalType": "uint256",
          "name": "groupSize",
          "type": "uint256"
        },
        {
          "indexed": false,
          "internalType": "address[]",
          "name": "participantAddresses",
          "type": "address[]"
        },
        {
          "indexed": false,
          "internalType": "address[]",
          "name": "possibleWinnerAddresses",
          "type": "address[]"
        },
        {
          "components": [
            {
              "internalType": "enum SimpleSavingCircle.Stages",
              "name": "stage",
              "type": "uint8"
            },
            {
              "internalType": "uint256",
              "name": "roundStartTime",
              "type": "uint256"
            },
            {
              "internalType": "uint256",
              "name": "participantCounter",
              "type": "uint256"
            },
            {
              "internalType": "uint256",
              "name": "paidCounter",
              "type": "uint256"
            },
            {
              "internalType": "uint256",
              "name": "paidDepositCounter",
              "type": "uint256"
            },
            {
              "internalType": "uint256",
              "name": "roundCounter",
              "type": "uint256"
            },
            {
              "internalType": "bool",
              "name": "paidOut",
              "type": "bool"
            },
            {
              "internalType": "bool",
              "name": "everyonePaidDeposit",
              "type": "bool"
            }
          ],
          "indexed": false,
          "internalType": "struct SimpleSavingCircle.StageStats",
          "name": "stats",
          "type": "tuple"
        }
      ],
      "name": "NewSavingCircleCreated",
      "type": "event"
    },
    {
      "anonymous": false,
      "inputs": [
        {
          "indexed": false,
          "internalType": "bytes32",
          "name": "circleId",
          "type": "bytes32"
        },
        {
          "indexed": false,
          "internalType": "address",
          "name": "participant",
          "type": "address"
        }
      ],
      "name": "PaidRound",
      "type": "event"
    },
    {
      "anonymous": false,
      "inputs": [
        {
          "indexed": false,
          "internalType": "bytes32",
          "name": "circleId",
          "type": "bytes32"
        },
        {
          "indexed": false,
          "internalType": "address",
          "name": "participant",
          "type": "address"
        },
        {
          "indexed": false,
          "internalType": "uint256",
          "name": "amountPaid",
          "type": "uint256"
        }
      ],
      "name": "PartiallyPaidRound",
      "type": "event"
    },
    {
      "anonymous": false,
      "inputs": [
        {
          "indexed": false,
          "internalType": "bytes32",
          "name": "circleId",
          "type": "bytes32"
        },
        {
          "indexed": false,
          "internalType": "address",
          "name": "participant",
          "type": "address"
        }
      ],
      "name": "RegisteredNewUserAndPaidDeposit",
      "type": "event"
    },
    {
      "anonymous": false,
      "inputs": [
        {
          "indexed": false,
          "internalType": "bytes32",
          "name": "circleId",
          "type": "bytes32"
        },
        {
          "indexed": false,
          "internalType": "address",
          "name": "winner",
          "type": "address"
        },
        {
          "indexed": false,
          "internalType": "bool",
          "name": "success",
          "type": "bool"
        }
      ],
      "name": "RoundEndedAndUserWasPaidOut",
      "type": "event"
    },
    {
      "anonymous": false,
      "inputs": [
        {
          "indexed": false,
          "internalType": "bytes32",
          "name": "circleId",
          "type": "bytes32"
        },
        {
          "indexed": false,
          "internalType": "enum SimpleSavingCircle.Stages",
          "name": "stage",
          "type": "uint8"
        }
      ],
      "name": "StageChanged",
      "type": "event"
    },
    {
      "anonymous": false,
      "inputs": [
        {
          "indexed": false,
          "internalType": "bytes32",
          "name": "circleId",
          "type": "bytes32"
        },
        {
          "indexed": false,
          "internalType": "address",
          "name": "host",
          "type": "address"
        }
      ],
      "name": "StartedFirstRound",
      "type": "event"
    },
    {
      "inputs": [
        {
          "internalType": "bytes32",
          "name": "circleId",
          "type": "bytes32"
        }
      ],
      "name": "completeCircle",
      "outputs": [],
      "stateMutability": "nonpayable",
      "type": "function"
    },
    {
      "inputs": [
        {
          "internalType": "uint256",
          "name": "_saveAmountPerRound",
          "type": "uint256"
        },
        {
          "internalType": "uint256",
          "name": "_groupSize",
          "type": "uint256"
        },
        {
          "internalType": "uint256",
          "name": "_payTime",
          "type": "uint256"
        },
        {
          "internalType": "string",
          "name": "cid",
          "type": "string"
        }
      ],
      "name": "createSavingCircle",
      "outputs": [],
      "stateMutability": "payable",
      "type": "function"
    },
    {
      "inputs": [
        {
          "internalType": "bytes32",
          "name": "circleId",
          "type": "bytes32"
        }
      ],
      "name": "emergencyWithdrawal",
      "outputs": [],
      "stateMutability": "nonpayable",
      "type": "function"
    },
    {
      "inputs": [
        {
          "internalType": "bytes32",
          "name": "circleId",
          "type": "bytes32"
        }
      ],
      "name": "endRoundAndStartNextRound",
      "outputs": [],
      "stateMutability": "nonpayable",
      "type": "function"
    },
    {
      "inputs": [
        {
          "internalType": "bytes32",
          "name": "circleId",
          "type": "bytes32"
        }
      ],
      "name": "extendDeadline",
      "outputs": [],
      "stateMutability": "nonpayable",
      "type": "function"
    },
    {
      "inputs": [],
      "name": "fee",
      "outputs": [
        {
          "internalType": "uint256",
          "name": "",
          "type": "uint256"
        }
      ],
      "stateMutability": "view",
      "type": "function"
    },
    {
      "inputs": [],
      "name": "getRandomNumber",
      "outputs": [
        {
          "internalType": "bytes32",
          "name": "requestId",
          "type": "bytes32"
        }
      ],
      "stateMutability": "nonpayable",
      "type": "function"
    },
    {
      "inputs": [
        {
          "internalType": "bytes32",
          "name": "circleId",
          "type": "bytes32"
        },
        {
          "internalType": "address",
          "name": "user",
          "type": "address"
        }
      ],
      "name": "isUserInCircle",
      "outputs": [
        {
          "internalType": "bool",
          "name": "userInCircle",
          "type": "bool"
        }
      ],
      "stateMutability": "view",
      "type": "function"
    },
    {
      "inputs": [],
      "name": "keyHash",
      "outputs": [
        {
          "internalType": "bytes32",
          "name": "",
          "type": "bytes32"
        }
      ],
      "stateMutability": "view",
      "type": "function"
    },
    {
      "inputs": [
        {
          "internalType": "bytes32",
          "name": "circleId",
          "type": "bytes32"
        }
      ],
      "name": "makePayment",
      "outputs": [],
      "stateMutability": "payable",
      "type": "function"
    },
    {
      "inputs": [],
      "name": "randomResult",
      "outputs": [
        {
          "internalType": "uint256",
          "name": "",
          "type": "uint256"
        }
      ],
      "stateMutability": "view",
      "type": "function"
    },
    {
      "inputs": [
        {
          "internalType": "bytes32",
          "name": "requestId",
          "type": "bytes32"
        },
        {
          "internalType": "uint256",
          "name": "randomness",
          "type": "uint256"
        }
      ],
      "name": "rawFulfillRandomness",
      "outputs": [],
      "stateMutability": "nonpayable",
      "type": "function"
    },
    {
      "inputs": [
        {
          "internalType": "bytes32",
          "name": "circleId",
          "type": "bytes32"
        }
      ],
      "name": "registerToSavingCircle",
      "outputs": [],
      "stateMutability": "payable",
      "type": "function"
    },
    {
      "inputs": [
        {
          "internalType": "bytes32",
          "name": "circleId",
          "type": "bytes32"
        }
      ],
      "name": "startFirstRound",
      "outputs": [],
      "stateMutability": "nonpayable",
      "type": "function"
    }
  ],
  "bytecode": "0x60c060405234801561001057600080fd5b507f2ca8e0c643bde4c2e08ab1fa0da3401adad7734d00000000000000000000000060a0527f326c977e6efc84e512bb9c30f76e30c160ed06fb0000000000000000000000006080527f79d3d8832d904592c0bf9818b621522c988bb8b0c05cdc3b15aea1b6e8db0c1560035567016345785d8a000060045573326c977e6efc84e512bb9c30f76e30c160ed06fb732ca8e0c643bde4c2e08ab1fa0da3401adad7734d612c6b6100d960003960008181610f340152612510015260006124e10152612c6b6000f3fe6080604052600436106100dd5760003560e01c806394985ddd1161007f578063ddca3f4311610059578063ddca3f431461021b578063de72507f14610231578063e209aabd14610244578063f42c51ca1461026457600080fd5b806394985ddd146101c6578063999e3320146101e6578063dbdff2c11461020657600080fd5b806350e8f9be116100bb57806350e8f9be1461015d57806361728f391461017d5780636fbec0cd146101935780637eac9f7c146101b357600080fd5b806302c41293146100e2578063254d7ee01461011757806342619f6614610139575b600080fd5b3480156100ee57600080fd5b506101026100fd36600461281c565b610277565b60405190151581526020015b60405180910390f35b34801561012357600080fd5b50610137610132366004612804565b610313565b005b34801561014557600080fd5b5061014f60055481565b60405190815260200161010e565b34801561016957600080fd5b50610137610178366004612804565b6105f8565b34801561018957600080fd5b5061014f60035481565b34801561019f57600080fd5b506101376101ae366004612804565b610714565b6101376101c1366004612804565b610b17565b3480156101d257600080fd5b506101376101e1366004612856565b610f29565b3480156101f257600080fd5b50610137610201366004612804565b610fa7565b34801561021257600080fd5b5061014f611720565b34801561022757600080fd5b5061014f60045481565b61013761023f366004612877565b611735565b34801561025057600080fd5b5061013761025f366004612804565b611d10565b610137610272366004612804565b611efd565b6000805b60008481526001602052604090206006015481101561030c57600084815260016020526040902060060180546001600160a01b0385169190839081106102d157634e487b7160e01b600052603260045260246000fd5b6000918252602090912001546001600160a01b031614156102f557600191506102fa565b600091505b8061030481612ba4565b91505061027b565b5092915050565b6000818152600160205260409020600201546001600160a01b03163381146103905760405162461bcd60e51b815260206004820152602560248201527f4f6e6c792074686520686f73742063616e2063616c6c20746869732066756e636044820152643a34b7b71760d91b60648201526084015b60405180910390fd5b8160008060008381526001602052604090206008015460ff1660038111156103c857634e487b7160e01b600052602160045260246000fd5b146104075760405162461bcd60e51b815260206004820152600f60248201526e496e636f727265637420537461676560881b6044820152606401610387565b6000848152600160205260409020600d01541561048c5760405162461bcd60e51b815260206004820152603f60248201527f546869732066756e6374696f6e2063616e206f6e6c792062652063616c6c656460448201527f20696620726f756e647320686176656e27742073746172746564207965742e006064820152608401610387565b60008481526001602052604090206005810154600a909101541461053e5760405162461bcd60e51b815260206004820152605260248201527f546865726520617265207374696c6c2073706f7473206c6566742e20416c6c2060448201527f73706f7473206d7573742062652066696c6c656420696e206f7264657220746f60648201527f2073746172742074686520726f756e64732e0000000000000000000000000000608482015260a401610387565b600084815260016020819052604091829020600801805460ff19168217905590517f0138f94bcc496e42290fb7d6136e33a3cdd1de4173bc23a00d8ca1b7962e17b99161058d91879190612a1f565b60405180910390a1600084815260016020818152604092839020600d81019290925542600990920191909155815186815233918101919091527fbe5e92ff0040998aa6e96082833ef15c05d030093a32f549587b6056a7d138e091015b60405180910390a150505050565b6000818152600160205260409020600201546001600160a01b03163381146106705760405162461bcd60e51b815260206004820152602560248201527f4f6e6c792074686520686f73742063616e2063616c6c20746869732066756e636044820152643a34b7b71760d91b6064820152608401610387565b8160038060008381526001602052604090206008015460ff1660038111156106a857634e487b7160e01b600052602160045260246000fd5b146106e75760405162461bcd60e51b815260206004820152600f60248201526e496e636f727265637420537461676560881b6044820152606401610387565b6000848152600160205260408120600301805460079290610709908490612b07565b909155505050505050565b6000818152600160205260409020600201546001600160a01b031633811461078c5760405162461bcd60e51b815260206004820152602560248201527f4f6e6c792074686520686f73742063616e2063616c6c20746869732066756e636044820152643a34b7b71760d91b6064820152608401610387565b8160038060008381526001602052604090206008015460ff1660038111156107c457634e487b7160e01b600052602160045260246000fd5b146108035760405162461bcd60e51b815260206004820152600f60248201526e496e636f727265637420537461676560881b6044820152606401610387565b600047116108535760405162461bcd60e51b815260206004820152601760248201527f4e6f2066756e647320746f20646973747269627574652e0000000000000000006044820152606401610387565b606060005b6000868152600160205260409020600a015460ff821610156109855760008681526001602052604081206006018054600292919060ff85169081106108ad57634e487b7160e01b600052603260045260246000fd5b60009182526020808320909101546001600160a01b0316835282019290925260400190206002015460ff1615610973576000868152600160205260409020600601805460ff831690811061091157634e487b7160e01b600052603260045260246000fd5b9060005260206000200160009054906101000a90046001600160a01b0316828260ff168151811061095257634e487b7160e01b600052603260045260246000fd5b60200260200101906001600160a01b031690816001600160a01b0316815250505b8061097d81612bbf565b915050610858565b5060005b81518160ff161015610b0f576000828260ff16815181106109ba57634e487b7160e01b600052603260045260246000fd5b60200260200101516001600160a01b03168351476109d89190612b1f565b604051600081818185875af1925050503d8060008114610a14576040519150601f19603f3d011682016040523d82523d6000602084013e610a19565b606091505b5050905080610a6a5760405162461bcd60e51b815260206004820152601460248201527f4661696c656420746f2073656e642045746865720000000000000000000000006044820152606401610387565b7f8e5f31a1ff0b4669c4299f9426bf1ad20c66ae38065cf7be02f95a77040bccac8747858560ff1681518110610ab057634e487b7160e01b600052603260045260246000fd5b6020026020010151865147610ac59190612b1f565b604051610af4949392919093845260208401929092526001600160a01b03166040830152606082015260800190565b60405180910390a15080610b0781612bbf565b915050610989565b505050505050565b610b218133610277565b600181151514610b995760405162461bcd60e51b815260206004820152602260248201527f55736572206973206e6f74207265676973746572656420666f7220436972636c60448201527f652e0000000000000000000000000000000000000000000000000000000000006064820152608401610387565b8160018060008381526001602052604090206008015460ff166003811115610bd157634e487b7160e01b600052602160045260246000fd5b14610c105760405162461bcd60e51b815260206004820152600f60248201526e496e636f727265637420537461676560881b6044820152606401610387565b3360009081526002602081905260409091200154349060ff1615610c9c5760405162461bcd60e51b815260206004820152603e60248201527f596f7520616c7265616479207061696420666f72207468697320726f756e642e60448201527f205761697420756e74696c206e65787420726f756e64207374617274732e00006064820152608401610387565b600085815260016020526040902060090154421015610d235760405162461bcd60e51b815260206004820152603c60248201527f526f756e6420686173206e6f742073746172746564207965742120576169742060448201527f666f7220686f737420746f2073746172742074686520726f756e642e000000006064820152608401610387565b336000908152600260209081526040808320600190810154898552925290912060040154610d519190612b52565b8111158015610d605750600081115b610dac5760405162461bcd60e51b815260206004820152601260248201527f496e636f7272656374205061796d656e742e00000000000000000000000000006044820152606401610387565b33600090815260026020526040812060010154610dca908390612b07565b600087815260016020526040902060040154909150811415610e6157336000908152600260208181526040808420909201805460ff1916600190811790915589845290528120600b01805491610e1f83612ba4565b9091555050604080518781523360208201527fbdd7799532fdd2516e061df87f6d81d5f132518f126e7d3d5e9b995d0da94ae5910160405180910390a1610ec9565b3360009081526002602052604081206001018054849290610e83908490612b07565b9091555050604080518781523360208201529081018390527fb0a6c8ded960e876add46f1c716aa8f705c7b8c9f133ad363382b9848925b2da9060600160405180910390a15b6000868152600160205260409020600a810154600b909101541415610b0f57604080518781524760208201527f0653cadc2b247430ac1cc8ed0593f830780bad34c4755208b76c72784ec2e20391015b60405180910390a1505050505050565b336001600160a01b037f00000000000000000000000000000000000000000000000000000000000000001614610fa15760405162461bcd60e51b815260206004820152601f60248201527f4f6e6c7920565246436f6f7264696e61746f722063616e2066756c66696c6c006044820152606401610387565b60055550565b6000818152600160205260409020600201546001600160a01b031633811461101f5760405162461bcd60e51b815260206004820152602560248201527f4f6e6c792074686520686f73742063616e2063616c6c20746869732066756e636044820152643a34b7b71760d91b6064820152608401610387565b8160018060008381526001602052604090206008015460ff16600381111561105757634e487b7160e01b600052602160045260246000fd5b146110965760405162461bcd60e51b815260206004820152600f60248201526e496e636f727265637420537461676560881b6044820152606401610387565b6000848152600160205260409020600301546110b59062015180612b33565b6000858152600160205260409020600901546110d19190612b07565b4211156111be57600084815260016020526040902060088101805460ff1916600390811790915501546111079062015180612b33565b6000858152600160205260409020600901546111239190612b07565b4211156111be5760405162461bcd60e51b815260206004820152604960248201527f43414e4e4f5420454e4420524f554e4420414654455220444541444c494e452e60448201527f20457874656e6420446561646c696e65206f7220456d657267656e637920576960648201527f746864726177616c2e0000000000000000000000000000000000000000000000608482015260a401610387565b60005b6000858152600160205260409020600a015460ff821610156113b15760008581526001602052604081206006018054600292919060ff851690811061121657634e487b7160e01b600052603260045260246000fd5b60009182526020808320909101546001600160a01b0316835282019290925260400190206002015460ff1661139f5760008581526001602052604090819020600801805460ff1916600390811790915590517f0138f94bcc496e42290fb7d6136e33a3cdd1de4173bc23a00d8ca1b7962e17b99161129691889190612a1f565b60405180910390a160008581526001602052604081206006018054600292919060ff85169081106112d757634e487b7160e01b600052603260045260246000fd5b60009182526020808320909101546001600160a01b0316835282019290925260400190206002015460ff16151560011461139f5760405162461bcd60e51b815260206004820152604860248201527f41207061727469636970616e74206469646e27742066756c6c79207061792e2060448201527f457874656e6420446561646c696e65206f7220456d657267656e63792057697460648201527f6864726177616c2e000000000000000000000000000000000000000000000000608482015260a401610387565b806113a981612bbf565b9150506111c1565b506113ba611720565b5060006113c685612295565b60008681526001602052604080822060040154905192935090916001600160a01b03841691908381818185875af1925050503d8060008114611424576040519150601f19603f3d011682016040523d82523d6000602084013e611429565b606091505b5050905080611469576000868152600160208190526040909120600701546005546114699261146392909161145d916122f8565b9061230b565b87612317565b806114b65760405162461bcd60e51b815260206004820152601460248201527f4661696c656420746f2073656e642045746865720000000000000000000000006044820152606401610387565b6000868152600160205260409020600a810154600d909101541480156114eb5750600086815260016020526040902060070154155b156115835760008681526001602052604090819020600801805460ff1916600290811790915590517f0138f94bcc496e42290fb7d6136e33a3cdd1de4173bc23a00d8ca1b7962e17b99161154191899190612a1f565b60405180910390a16040518681527fc25873041385905b42cf4474914ad3fae42120026acc98e9304c6bb4bafed96b9060200160405180910390a1505061171a565b6000868152600160205260408120600d018054916115a083612ba4565b919050555060005b6000878152600160205260409020600a015460ff821610156116aa5760008781526001602052604081206006018054600291839160ff86169081106115fd57634e487b7160e01b600052603260045260246000fd5b6000918252602080832091909101546001600160a01b0316835282810193909352604091820181206002908101805460ff1916951515959095179094558a815260019092528120600601805491929183919060ff861690811061167057634e487b7160e01b600052603260045260246000fd5b60009182526020808320909101546001600160a01b03168352820192909252604001902060010155806116a281612bbf565b9150506115a8565b50600086815260016020526040808220600b81019290925542600990920191909155517f80083764668ebefba3c6961b7dad221c71ce296d3afe4064f0fe99dd65fcfe9490610f19908890859085909283526001600160a01b039190911660208301521515604082015260600190565b50505050565b60006117306003546004546124dd565b905090565b336117825760405162461bcd60e51b815260206004820152601d60248201527f486f7374277320616464726573732063616e6e6f74206265207a65726f0000006044820152606401610387565b6001831180156117935750600c8311155b6118055760405162461bcd60e51b815260206004820152603e60248201527f5f67726f757053697a65206d7573742062652067726561746572207468616e2060448201527f3120616e64206c657373207468616e206f7220657175616c20746f20313200006064820152608401610387565b6000841161187b5760405162461bcd60e51b815260206004820152602760248201527f536176696e6720416d6f756e742063616e6e6f74206265206c6573732074686160448201527f6e203020455448000000000000000000000000000000000000000000000000006064820152608401610387565b60018210156118f25760405162461bcd60e51b815260206004820152602360248201527f5061792054696d652063616e6e6f74206265206c657373207468616e2061206460448201527f61792e00000000000000000000000000000000000000000000000000000000006064820152608401610387565b6040516bffffffffffffffffffffffff193360601b16602082015242603482015260548101849052607481018590526094810183905260009060b401604051602081830303815290604052805190602001209050606080604051806101200160405280848152602001858152602001336001600160a01b03168152602001868152602001888152602001878152602001838152602001828152602001604051806101000160405280600060038111156119bb57634e487b7160e01b600052602160045260246000fd5b815260006020808301829052600160408085018290526060850184905234608086015260a0850184905260c0850184905260e09094018390529390945287815282845220835181558383015180519193611a1a938501929101906126f6565b5060408201516002820180546001600160a01b0319166001600160a01b03909216919091179055606082015160038201556080820151600482015560a0820151600582015560c08201518051611a7a91600684019160209091019061277a565b5060e08201518051611a9691600784019160209091019061277a565b506101008201518051600883018054909190829060ff19166001836003811115611ad057634e487b7160e01b600052602160045260246000fd5b02179055506020828101516001808401919091556040808501516002808601919091556060808701516003870155608080880151600488015560a0880151600588015560c08801516006978801805460e0909a015115156101000261ff00199215159290921661ffff19909a16999099171790975560008c8152848652838120968701805480870182559082528682200180546001600160a01b03199081163390811790925560079098018054808801825590835287832001805490981681179097558351978801845286885287860185815288850182815292890182815288835296849052908490209751885491511515600160a01b0274ffffffffffffffffffffffffffffffffffffffffff199092166001600160a01b039190911617178755519286019290925591519301805493151560ff19949094169390931790925590517fda905514d6d808601afeed51e61cde3dc2b500336339b4eb6de71bd7c6babf619350611c5592508691909182526001600160a01b0316602082015260400190565b60405180910390a17f3b2871ed1081787789e2d1ff58c132fda5638b5325d2b930997eee038f465487838533888b8b888860405180610100016040528060006003811115611cb357634e487b7160e01b600052602160045260246000fd5b81526020016000815260200160018152602001600081526020013481526020016000815260200160001515815260200160001515815250604051611cff99989796959493929190612a33565b60405180910390a150505050505050565b6000818152600160205260409020600201546001600160a01b0316338114611d885760405162461bcd60e51b815260206004820152602560248201527f4f6e6c792074686520686f73742063616e2063616c6c20746869732066756e636044820152643a34b7b71760d91b6064820152608401610387565b8160028060008381526001602052604090206008015460ff166003811115611dc057634e487b7160e01b600052602160045260246000fd5b14611dff5760405162461bcd60e51b815260206004820152600f60248201526e496e636f727265637420537461676560881b6044820152606401610387565b600084815260016020526040902060070154158015611e3457506000848152600160205260409020600a810154600d90910154145b611ecd5760405162461bcd60e51b8152602060048201526044602482018190527f4e6f742065766572796f6e6520686173206265656e2070616964206f75742073908201527f6f20736176696e6720636972636c652063616e6e6f7420626520636f6d706c6560648201527f7465642e00000000000000000000000000000000000000000000000000000000608482015260a401610387565b6040518481527fbd832f9c6833c0ee1bb756dfd518f077a8228fa41d7c45fe37605fd240ce9023906020016105ea565b8060008060008381526001602052604090206008015460ff166003811115611f3557634e487b7160e01b600052602160045260246000fd5b14611f745760405162461bcd60e51b815260206004820152600f60248201526e496e636f727265637420537461676560881b6044820152606401610387565b611f7d33612666565b611f878333610277565b15611fd45760405162461bcd60e51b815260206004820152601b60248201527f596f752061726520616c726561647920726567697374657265642e00000000006044820152606401610387565b60008381526001602052604090206005810154600a90910154106120605760405162461bcd60e51b815260206004820152602260248201527f5468652063757272656e7420736176696e6720636972636c652069732066756c60448201527f6c2e0000000000000000000000000000000000000000000000000000000000006064820152608401610387565b60008381526001602052604090206004015434146120c05760405162461bcd60e51b815260206004820152600a60248201527f4e4f5420454e4f554748000000000000000000000000000000000000000000006044820152606401610387565b6000838152600160205260408120600a018054916120dd83612ba4565b90915550506000838152600160205260408120600c018054349290612103908490612b07565b9091555050600083815260016020818152604080842060068101805480860182559086528386200180546001600160a01b03199081163390811790925560079092018054808701825590875284872001805490921681179091558151608081018352818152808401858152818401878152606083018881528489526002808852988690209351845493511515600160a01b0274ffffffffffffffffffffffffffffffffffffffffff199094166001600160a01b03909116179290921783555195820195909555935193909401805493151560ff19909416939093179092558151868152908101929092527fda905514d6d808601afeed51e61cde3dc2b500336339b4eb6de71bd7c6babf61910160405180910390a160008381526001602052604090206005810154600a9091015414156122905760008381526001602052604090819020600e01805461ff001916610100179055517f68cab3f785508fdb3631231fc7769a1607acd54b0408b9aa4eaf89a397f9de79906122879085815260200190565b60405180910390a15b505050565b60008181526001602081905260408220600701805460055491926122bf92909161145d91906122f8565b815481106122dd57634e487b7160e01b600052603260045260246000fd5b6000918252602090912001546001600160a01b031692915050565b60006123048284612bdf565b9392505050565b60006123048284612b07565b600081815260016020526040902060070154821061239d5760405162461bcd60e51b815260206004820152602260248201527f72656d6f766557696e6e65723a20496e646578204f7574206f6620426f756e6460448201527f732e0000000000000000000000000000000000000000000000000000000000006064820152608401610387565b815b6000828152600160208190526040909120600701546123be9190612b52565b811015612488576000828152600160208190526040909120600701906123e5908390612b07565b8154811061240357634e487b7160e01b600052603260045260246000fd5b60009182526020808320909101548483526001909152604090912060070180546001600160a01b03909216918390811061244d57634e487b7160e01b600052603260045260246000fd5b600091825260209091200180546001600160a01b0319166001600160a01b03929092169190911790558061248081612ba4565b91505061239f565b5060008181526001602052604090206007018054806124b757634e487b7160e01b600052603160045260246000fd5b600082815260209020810160001990810180546001600160a01b03191690550190555050565b60007f00000000000000000000000000000000000000000000000000000000000000006001600160a01b0316634000aea07f00000000000000000000000000000000000000000000000000000000000000008486600060405160200161254d929190918252602082015260400190565b6040516020818303038152906040526040518463ffffffff1660e01b815260040161257a939291906129ee565b602060405180830381600087803b15801561259457600080fd5b505af11580156125a8573d6000803e3d6000fd5b505050506040513d601f19601f820116820180604052508101906125cc91906127e4565b5060008381526020818152604080832054815180840188905280830185905230606082015260808082018390528351808303909101815260a090910190925281519183019190912086845292909152612626906001612b07565b6000858152602081815260409182902092909255805180830187905280820184905281518082038301815260609091019091528051910120949350505050565b6001600160a01b0381166000908152600260208190526040909120015460ff161515600114156126b5576001600160a01b038116600090815260026020819052604090912001805460ff191690555b6001600160a01b038116600090815260026020526040902060010154156126f3576001600160a01b0381166000908152600260205260408120600101555b50565b82805461270290612b69565b90600052602060002090601f016020900481019282612724576000855561276a565b82601f1061273d57805160ff191683800117855561276a565b8280016001018555821561276a579182015b8281111561276a57825182559160200191906001019061274f565b506127769291506127cf565b5090565b82805482825590600052602060002090810192821561276a579160200282015b8281111561276a57825182546001600160a01b0319166001600160a01b0390911617825560209092019160019091019061279a565b5b8082111561277657600081556001016127d0565b6000602082840312156127f5578081fd5b81518015158114612304578182fd5b600060208284031215612815578081fd5b5035919050565b6000806040838503121561282e578081fd5b8235915060208301356001600160a01b038116811461284b578182fd5b809150509250929050565b60008060408385031215612868578182fd5b50508035926020909101359150565b6000806000806080858703121561288c578182fd5b843593506020850135925060408501359150606085013567ffffffffffffffff808211156128b8578283fd5b818701915087601f8301126128cb578283fd5b8135818111156128dd576128dd612c1f565b604051601f8201601f19908116603f0116810190838211818310171561290557612905612c1f565b816040528281528a602084870101111561291d578586fd5b82602086016020830137918201602001949094529598949750929550505050565b6000815180845260208085019450808401835b838110156129765781516001600160a01b031687529582019590820190600101612951565b509495945050505050565b60008151808452815b818110156129a65760208185018101518683018201520161298a565b818111156129b75782602083870101525b50601f01601f19169290920160200192915050565b600481106129ea57634e487b7160e01b600052602160045260246000fd5b9052565b6001600160a01b0384168152826020820152606060408201526000612a166060830184612981565b95945050505050565b8281526040810161230460208301846129cc565b60006102008b8352806020840152612a4d8184018c612981565b90506001600160a01b038a1660408401528860608401528760808401528660a084015282810360c0840152612a82818761293e565b905082810360e0840152612a96818661293e565b915050612aa8610100830184516129cc565b602083015161012083015260408301516101408301526060830151610160830152608083015161018083015260a08301516101a083015260c083015115156101c083015260e083015115156101e08301529a9950505050505050505050565b60008219821115612b1a57612b1a612bf3565b500190565b600082612b2e57612b2e612c09565b500490565b6000816000190483118215151615612b4d57612b4d612bf3565b500290565b600082821015612b6457612b64612bf3565b500390565b600181811c90821680612b7d57607f821691505b60208210811415612b9e57634e487b7160e01b600052602260045260246000fd5b50919050565b6000600019821415612bb857612bb8612bf3565b5060010190565b600060ff821660ff811415612bd657612bd6612bf3565b60010192915050565b600082612bee57612bee612c09565b500690565b634e487b7160e01b600052601160045260246000fd5b634e487b7160e01b600052601260045260246000fd5b634e487b7160e01b600052604160045260246000fdfea26469706673582212201cc7535d13b12499a086ef07f383db61f89477a0a79e5bbcf4165fff3adae53d64736f6c63430008040033",
  "linkReferences": {},
  "deployedLinkReferences": {}
}