{
  "_format": "hh-sol-artifact-1",
  "contractName": "Main",
  "sourceName": "contracts/Main.sol",
  "abi": [
    {
      "inputs": [],
      "stateMutability": "nonpayable",
      "type": "constructor"
    },
    {
      "anonymous": false,
      "inputs": [
        {
          "indexed": true,
          "internalType": "bytes32",
          "name": "role",
          "type": "bytes32"
        },
        {
          "indexed": true,
          "internalType": "bytes32",
          "name": "previousAdminRole",
          "type": "bytes32"
        },
        {
          "indexed": true,
          "internalType": "bytes32",
          "name": "newAdminRole",
          "type": "bytes32"
        }
      ],
      "name": "RoleAdminChanged",
      "type": "event"
    },
    {
      "anonymous": false,
      "inputs": [
        {
          "indexed": true,
          "internalType": "bytes32",
          "name": "role",
          "type": "bytes32"
        },
        {
          "indexed": true,
          "internalType": "address",
          "name": "account",
          "type": "address"
        },
        {
          "indexed": true,
          "internalType": "address",
          "name": "sender",
          "type": "address"
        }
      ],
      "name": "RoleGranted",
      "type": "event"
    },
    {
      "anonymous": false,
      "inputs": [
        {
          "indexed": true,
          "internalType": "bytes32",
          "name": "role",
          "type": "bytes32"
        },
        {
          "indexed": true,
          "internalType": "address",
          "name": "account",
          "type": "address"
        },
        {
          "indexed": true,
          "internalType": "address",
          "name": "sender",
          "type": "address"
        }
      ],
      "name": "RoleRevoked",
      "type": "event"
    },
    {
      "anonymous": false,
      "inputs": [
        {
          "indexed": false,
          "internalType": "contract SavingCircle",
          "name": "newSavingCircle",
          "type": "address"
        }
      ],
      "name": "SavingCircleCreated",
      "type": "event"
    },
    {
      "inputs": [],
      "name": "DEFAULT_ADMIN_ROLE",
      "outputs": [
        {
          "internalType": "bytes32",
          "name": "",
          "type": "bytes32"
        }
      ],
      "stateMutability": "view",
      "type": "function"
    },
    {
      "inputs": [
        {
          "internalType": "uint256",
          "name": "_saveAmountPerRound",
          "type": "uint256"
        },
        {
          "internalType": "uint256",
          "name": "_groupSize",
          "type": "uint256"
        },
        {
          "internalType": "uint256",
          "name": "_payTime",
          "type": "uint256"
        }
      ],
      "name": "createSavingCircle",
      "outputs": [
        {
          "internalType": "address",
          "name": "",
          "type": "address"
        }
      ],
      "stateMutability": "payable",
      "type": "function"
    },
    {
      "inputs": [
        {
          "internalType": "bytes32",
          "name": "role",
          "type": "bytes32"
        }
      ],
      "name": "getRoleAdmin",
      "outputs": [
        {
          "internalType": "bytes32",
          "name": "",
          "type": "bytes32"
        }
      ],
      "stateMutability": "view",
      "type": "function"
    },
    {
      "inputs": [
        {
          "internalType": "bytes32",
          "name": "role",
          "type": "bytes32"
        },
        {
          "internalType": "address",
          "name": "account",
          "type": "address"
        }
      ],
      "name": "grantRole",
      "outputs": [],
      "stateMutability": "nonpayable",
      "type": "function"
    },
    {
      "inputs": [
        {
          "internalType": "bytes32",
          "name": "role",
          "type": "bytes32"
        },
        {
          "internalType": "address",
          "name": "account",
          "type": "address"
        }
      ],
      "name": "hasRole",
      "outputs": [
        {
          "internalType": "bool",
          "name": "",
          "type": "bool"
        }
      ],
      "stateMutability": "view",
      "type": "function"
    },
    {
      "inputs": [
        {
          "internalType": "bytes32",
          "name": "role",
          "type": "bytes32"
        },
        {
          "internalType": "address",
          "name": "account",
          "type": "address"
        }
      ],
      "name": "renounceRole",
      "outputs": [],
      "stateMutability": "nonpayable",
      "type": "function"
    },
    {
      "inputs": [
        {
          "internalType": "bytes32",
          "name": "role",
          "type": "bytes32"
        },
        {
          "internalType": "address",
          "name": "account",
          "type": "address"
        }
      ],
      "name": "revokeRole",
      "outputs": [],
      "stateMutability": "nonpayable",
      "type": "function"
    },
    {
      "inputs": [
        {
          "internalType": "bytes4",
          "name": "interfaceId",
          "type": "bytes4"
        }
      ],
      "name": "supportsInterface",
      "outputs": [
        {
          "internalType": "bool",
          "name": "",
          "type": "bool"
        }
      ],
      "stateMutability": "view",
      "type": "function"
    }
  ],
  "bytecode": "0x608060405234801561001057600080fd5b5061001c600033610021565b6100cd565b61002b828261002f565b5050565b6000828152602081815260408083206001600160a01b038516845290915290205460ff1661002b576000828152602081815260408083206001600160a01b03851684529091529020805460ff191660011790556100893390565b6001600160a01b0316816001600160a01b0316837f2f8788117e7eff1d82e926ec794901d17c78024a50270940304540a733656f0d60405160405180910390a45050565b6132ec806100dc6000396000f3fe608060405260043610620000855760003560e01c806371df82ec116200005457806371df82ec146200015357806391d148541462000183578063a217fddf14620001cb578063d547741f14620001e257600080fd5b806301ffc9a7146200008a578063248a9ca314620000c45780632f2ff15d146200010757806336568abe146200012e575b600080fd5b3480156200009757600080fd5b50620000af620000a9366004620008d6565b62000207565b60405190151581526020015b60405180910390f35b348015620000d157600080fd5b50620000f8620000e336600462000881565b60009081526020819052604090206001015490565b604051908152602001620000bb565b3480156200011457600080fd5b506200012c620001263660046200089a565b620002a1565b005b3480156200013b57600080fd5b506200012c6200014d3660046200089a565b620002cf565b6200016a6200016436600462000918565b62000363565b6040516001600160a01b039091168152602001620000bb565b3480156200019057600080fd5b50620000af620001a23660046200089a565b6000918252602082815260408084206001600160a01b0393909316845291905290205460ff1690565b348015620001d857600080fd5b50620000f8600081565b348015620001ef57600080fd5b506200012c620002013660046200089a565b62000452565b60007fffffffff0000000000000000000000000000000000000000000000000000000082167f7965db0b0000000000000000000000000000000000000000000000000000000014806200029b57507f01ffc9a7000000000000000000000000000000000000000000000000000000007fffffffff000000000000000000000000000000000000000000000000000000008316145b92915050565b600082815260208190526040902060010154620002be816200047b565b620002ca83836200048a565b505050565b6001600160a01b0381163314620003535760405162461bcd60e51b815260206004820152602f60248201527f416363657373436f6e74726f6c3a2063616e206f6e6c792072656e6f756e636560448201527f20726f6c657320666f722073656c66000000000000000000000000000000000060648201526084015b60405180910390fd5b6200035f82826200052a565b5050565b6000803411620003b65760405162461bcd60e51b815260206004820152600b60248201527f4e6f204554482073656e7400000000000000000000000000000000000000000060448201526064016200034a565b60003485858533604051620003cb9062000873565b938452602084019290925260408301526001600160a01b031660608201526080016040518091039082f09050801580156200040a573d6000803e3d6000fd5b506040516001600160a01b03821681529091507f7cca4befb965370bc2797c090fe7d42c25ece5802777c0fb09b0c0211da3380f9060200160405180910390a1949350505050565b6000828152602081905260409020600101546200046f816200047b565b620002ca83836200052a565b620004878133620005aa565b50565b6000828152602081815260408083206001600160a01b038516845290915290205460ff166200035f576000828152602081815260408083206001600160a01b03851684529091529020805460ff19166001179055620004e63390565b6001600160a01b0316816001600160a01b0316837f2f8788117e7eff1d82e926ec794901d17c78024a50270940304540a733656f0d60405160405180910390a45050565b6000828152602081815260408083206001600160a01b038516845290915290205460ff16156200035f576000828152602081815260408083206001600160a01b0385168085529252808320805460ff1916905551339285917ff6391f5c32d9c69d2a47ea670b442974b53935d1edc7fd64eb21e047a839171b9190a45050565b6000828152602081815260408083206001600160a01b038516845290915290205460ff166200035f57620005e9816001600160a01b0316601462000631565b620005f683602062000631565b6040516020016200060992919062000944565b60408051601f198184030181529082905262461bcd60e51b82526200034a91600401620009c9565b606060006200064283600262000a19565b6200064f906002620009fe565b67ffffffffffffffff8111156200067657634e487b7160e01b600052604160045260246000fd5b6040519080825280601f01601f191660200182016040528015620006a1576020820181803683370190505b5090507f300000000000000000000000000000000000000000000000000000000000000081600081518110620006e757634e487b7160e01b600052603260045260246000fd5b60200101906001600160f81b031916908160001a9053507f7800000000000000000000000000000000000000000000000000000000000000816001815181106200074157634e487b7160e01b600052603260045260246000fd5b60200101906001600160f81b031916908160001a90535060006200076784600262000a19565b62000774906001620009fe565b90505b60018111156200081b577f303132333435363738396162636465660000000000000000000000000000000085600f1660108110620007c557634e487b7160e01b600052603260045260246000fd5b1a60f81b828281518110620007ea57634e487b7160e01b600052603260045260246000fd5b60200101906001600160f81b031916908160001a90535060049490941c93620008138162000a6e565b905062000777565b5083156200086c5760405162461bcd60e51b815260206004820181905260248201527f537472696e67733a20686578206c656e67746820696e73756666696369656e7460448201526064016200034a565b9392505050565b6128188062000a9f83390190565b60006020828403121562000893578081fd5b5035919050565b60008060408385031215620008ad578081fd5b8235915060208301356001600160a01b0381168114620008cb578182fd5b809150509250929050565b600060208284031215620008e8578081fd5b81357fffffffff00000000000000000000000000000000000000000000000000000000811681146200086c578182fd5b6000806000606084860312156200092d578081fd5b505081359360208301359350604090920135919050565b7f416363657373436f6e74726f6c3a206163636f756e74200000000000000000008152600083516200097e81601785016020880162000a3b565b7f206973206d697373696e6720726f6c65200000000000000000000000000000006017918401918201528351620009bd81602884016020880162000a3b565b01602801949350505050565b6020815260008251806020840152620009ea81604085016020870162000a3b565b601f01601f19169190910160400192915050565b6000821982111562000a145762000a1462000a88565b500190565b600081600019048311821515161562000a365762000a3662000a88565b500290565b60005b8381101562000a5857818101518382015260200162000a3e565b8381111562000a68576000848401525b50505050565b60008162000a805762000a8062000a88565b506000190190565b634e487b7160e01b600052601160045260246000fdfe60c0604081905260006004819055600a819055600b819055600d55600e805460ff19166001179055601180546001600160a01b0319908116732ca8e0c643bde4c2e08ab1fa0da3401adad7734d17909155601280548216737a1bac17ccc5b313516c5e16fb24f7659aa5ebed17905560138054821673326c977e6efc84e512bb9c30f76e30c160ed06fb908117909155601480549092161790557f79d3d8832d904592c0bf9818b621522c988bb8b0c05cdc3b15aea1b6e8db0c156015557f4b09e658ed251bcafeebbc69400383d49f344ace09b9576fe248bb02c003fe9f60165567016345785d8a0000601781905560185562002818388190039081908339810160408190526200011191620005b4565b6011546013546001600160601b0319606092831b811660a052911b166080526001600160a01b0381166200018c5760405162461bcd60e51b815260206004820152601d60248201527f486f7374277320616464726573732063616e6e6f74206265207a65726f00000060448201526064015b60405180910390fd5b6001831180156200019e5750600c8311155b620002125760405162461bcd60e51b815260206004820152603e60248201527f5f67726f757053697a65206d7573742062652067726561746572207468616e2060448201527f3120616e64206c657373207468616e206f7220657175616c20746f2031320000606482015260840162000183565b60008411620002745760405162461bcd60e51b815260206004820152602760248201527f536176696e6720416d6f756e742063616e6e6f74206265206c657373207468616044820152660dc4060408aa8960cb1b606482015260840162000183565b6001821015620002d35760405162461bcd60e51b815260206004820152602360248201527f5061792054696d652063616e6e6f74206265206c657373207468616e2061206460448201526230bc9760e91b606482015260840162000183565b6001849055600284905560038390556004829055600580546001600160a01b0319166001600160a01b0383161790819055600c805460ff19169055604080516001600160601b0319606093841b81166020808401919091523090941b166034820152426048820152606881018790526088810186905260a8810187905260c88082018690528251808303909101815260e890910190915280519101206006819055600a805490600062000386836200061e565b90915550506008805460018181019092557ff3f7a9fe364faab93b216da50a3214154f22a0a2b415b23a84c8169e8b636ee30180546001600160a01b038086166001600160a01b03199283168117909355600980548086019091557f6e1540171b6c0c960b71a7020d9f60077f6af931a8bbf590da0223dacf75c7af0180548316841790556040805160a08101825284815234602082810191825282840188815260006060850181815260808601828152998252600790935294852093518454961695909616949094178255519581019590955591516002808601805492151560ff199384161790559151600386015592516004909401805494151594909316939093179091559054600b805491929091620004a490849062000603565b9091555050600654604080513381526020810192909252308282015260016060830152517f1e59f58e74bb3bbd9987920ed524e5b71a2108ce017110db76fae24a42480b489181900360800190a1600654604080519182523060208301523382820152517f208ce1a453fccb15b0280aac706840e7f5efcda5bd24988b3b0662eb98260b3e9181900360600190a1600554600354600254600154600454604080518781523060208201526001600160a01b0390961686820152426060870152608086019490945260a085019290925260c084015260e0830152517fa285aef39befc81ec298ee92289f1735ff5f0d5b157d304288d4e7239674a295918190036101000190a1505050505062000652565b60008060008060808587031215620005ca578384fd5b845160208601516040870151606088015192965090945092506001600160a01b0381168114620005f8578182fd5b939692955090935050565b600082198211156200061957620006196200063c565b500190565b60006000198214156200063557620006356200063c565b5060010190565b634e487b7160e01b600052601160045260246000fd5b60805160601c60a05160601c61218c6200068c600039600081816114ba0152611df1015260008181611af40152611dc2015261218c6000f3fe6080604052600436106101805760003560e01c8063743c81ab116100d657806394ddcf4c1161007f578063c86b334711610059578063c86b3347146103ed578063d8d7970014610403578063f437bc591461040b57600080fd5b806394ddcf4c1461039b578063af640d0f146103b0578063c040e6b8146103c657600080fd5b806386ac340b116100b057806386ac340b1461035d5780638d981e9c1461036557806394985ddd1461037b57600080fd5b8063743c81ab1461031c57806378e97925146103325780637d92654c1461034857600080fd5b806342619f661161013857806363b635ea1161011257806363b635ea146102db57806367a52793146102f157806369ef5e0a1461030757600080fd5b806342619f661461029a5780635b0a3843146102b05780635c709042146102c557600080fd5b806324294b1f1161016957806324294b1f146102495780632a18933c146102605780632d50e80d1461028457600080fd5b806309e69ede14610185578063146ca5311461021d575b600080fd5b34801561019157600080fd5b506101de6101a0366004611f66565b600760205260009081526040902080546001820154600283015460038401546004909401546001600160a01b0390931693919260ff91821692911685565b604080516001600160a01b03909616865260208601949094529115159284019290925260608301919091521515608082015260a0015b60405180910390f35b34801561022957600080fd5b50600e546102379060ff1681565b60405160ff9091168152602001610214565b34801561025557600080fd5b5061025e610443565b005b34801561026c57600080fd5b50610276600d5481565b604051908152602001610214565b34801561029057600080fd5b5061027660045481565b3480156102a657600080fd5b5061027660195481565b3480156102bc57600080fd5b5061025e61069e565b3480156102d157600080fd5b5061027660105481565b3480156102e757600080fd5b5061027660035481565b3480156102fd57600080fd5b5061027660025481565b34801561031357600080fd5b5061025e610a56565b34801561032857600080fd5b5061027660015481565b34801561033e57600080fd5b50610276600f5481565b34801561035457600080fd5b5061025e610b42565b61025e611101565b34801561037157600080fd5b50610276600b5481565b34801561038757600080fd5b5061025e610396366004611fad565b6114af565b3480156103a757600080fd5b5061025e611531565b3480156103bc57600080fd5b5061027660065481565b3480156103d257600080fd5b50600c546103e09060ff1681565b6040516102149190612051565b3480156103f957600080fd5b50610276600a5481565b61025e6116f1565b34801561041757600080fd5b5060055461042b906001600160a01b031681565b6040516001600160a01b039091168152602001610214565b6005546001600160a01b03163381146104b15760405162461bcd60e51b815260206004820152602560248201527f4f6e6c792074686520686f73742063616e2063616c6c20746869732066756e636044820152643a34b7b71760d91b60648201526084015b60405180910390fd5b600080600c5460ff1660038111156104d957634e487b7160e01b600052602160045260246000fd5b146105185760405162461bcd60e51b815260206004820152600f60248201526e496e636f727265637420537461676560881b60448201526064016104a8565b600e5460ff166001146105935760405162461bcd60e51b815260206004820152603960248201527f546869732066756e6374696f6e2063616e206f6e6c792062652063616c6c656460448201527f20696620697427732074686520666972737420726f756e642e0000000000000060648201526084016104a8565b600354600a54146106325760405162461bcd60e51b815260206004820152605260248201527f546865726520617265207374696c6c2073706f7473206c6566742e20416c6c2060448201527f73706f7473206d7573742062652066696c6c656420696e206f7264657220746f60648201527f2073746172742074686520726f756e64732e0000000000000000000000000000608482015260a4016104a8565b600c805460ff1916600117905542600f8190556010819055600654600354604080519384526020840192909252309183019190915260608201527f119a07629c44024b8a49ba173f0b98c74977c551e029b9d15375ac1750d3a90a906080015b60405180910390a15050565b6005546001600160a01b03163381146107075760405162461bcd60e51b815260206004820152602560248201527f4f6e6c792074686520686f73742063616e2063616c6c20746869732066756e636044820152643a34b7b71760d91b60648201526084016104a8565b600380600c5460ff16600381111561072f57634e487b7160e01b600052602160045260246000fd5b1461076e5760405162461bcd60e51b815260206004820152600f60248201526e496e636f727265637420537461676560881b60448201526064016104a8565b600047116107be5760405162461bcd60e51b815260206004820152601760248201527f4e6f2066756e647320746f20646973747269627574652e00000000000000000060448201526064016104a8565b606060005b600a548160ff1610156108c0576007600060088360ff16815481106107f857634e487b7160e01b600052603260045260246000fd5b60009182526020808320909101546001600160a01b0316835282019290925260400190206004015460ff16156108ae5760088160ff168154811061084c57634e487b7160e01b600052603260045260246000fd5b9060005260206000200160009054906101000a90046001600160a01b0316828260ff168151811061088d57634e487b7160e01b600052603260045260246000fd5b60200260200101906001600160a01b031690816001600160a01b0316815250505b806108b8816120f6565b9150506107c3565b5060005b81518160ff161015610a50576000828260ff16815181106108f557634e487b7160e01b600052603260045260246000fd5b60200260200101516001600160a01b03168351476109139190612091565b604051600081818185875af1925050503d806000811461094f576040519150601f19603f3d011682016040523d82523d6000602084013e610954565b606091505b50509050806109a55760405162461bcd60e51b815260206004820152601460248201527f4661696c656420746f2073656e6420457468657200000000000000000000000060448201526064016104a8565b7fdb20fc107ba75acedcbc69764c0e9d57a3247c5bb30cd527186362a338e9dd513047858560ff16815181106109eb57634e487b7160e01b600052603260045260246000fd5b6020026020010151865147610a009190612091565b604051610a3594939291906001600160a01b039485168152602081019390935292166040820152606081019190915260800190565b60405180910390a15080610a48816120f6565b9150506108c4565b50505050565b6005546001600160a01b0316338114610abf5760405162461bcd60e51b815260206004820152602560248201527f4f6e6c792074686520686f73742063616e2063616c6c20746869732066756e636044820152643a34b7b71760d91b60648201526084016104a8565b600380600c5460ff166003811115610ae757634e487b7160e01b600052602160045260246000fd5b14610b265760405162461bcd60e51b815260206004820152600f60248201526e496e636f727265637420537461676560881b60448201526064016104a8565b600760046000828254610b399190612079565b90915550505050565b6005546001600160a01b0316338114610bab5760405162461bcd60e51b815260206004820152602560248201527f4f6e6c792074686520686f73742063616e2063616c6c20746869732066756e636044820152643a34b7b71760d91b60648201526084016104a8565b600180600c5460ff166003811115610bd357634e487b7160e01b600052602160045260246000fd5b14610c125760405162461bcd60e51b815260206004820152600f60248201526e496e636f727265637420537461676560881b60448201526064016104a8565b600454610c2290620151806120a5565b600f54610c2f9190612079565b421115610cfb57600c805460ff19166003179055600454610c5390620151806120a5565b600f54610c609190612079565b421115610cfb5760405162461bcd60e51b815260206004820152604960248201527f43414e4e4f5420454e4420524f554e4420414654455220444541444c494e452e60448201527f20457874656e6420446561646c696e65206f7220456d657267656e637920576960648201527f746864726177616c2e0000000000000000000000000000000000000000000000608482015260a4016104a8565b60005b600a548160ff161015610e74576007600060088360ff1681548110610d3357634e487b7160e01b600052603260045260246000fd5b60009182526020808320909101546001600160a01b0316835282019290925260400190206004015460ff16610e6257600c805460ff191660031790556008805460079160009160ff8516908110610d9a57634e487b7160e01b600052603260045260246000fd5b60009182526020808320909101546001600160a01b0316835282019290925260400190206004015460ff161515600114610e625760405162461bcd60e51b815260206004820152604860248201527f41207061727469636970616e74206469646e27742066756c6c79207061792e2060448201527f457874656e6420446561646c696e65206f7220456d657267656e63792057697460648201527f6864726177616c2e000000000000000000000000000000000000000000000000608482015260a4016104a8565b80610e6c816120f6565b915050610cfe565b50610e7d611ab7565b506000610e88611bcf565b90506000816001600160a01b031660015460405160006040518083038185875af1925050503d8060008114610ed9576040519150601f19603f3d011682016040523d82523d6000602084013e610ede565b606091505b5050905080610ef257610ef2601954611c0e565b80610f3f5760405162461bcd60e51b815260206004820152601460248201527f4661696c656420746f2073656e6420457468657200000000000000000000000060448201526064016104a8565b600a54600e5460ff16148015610f555750600954155b15610fa757600c805460ff1916600217905560408051308152600160208201527f3240c17c36b01e950aa4228cbe13e70858171f13512c6889cd210f2582710c4f91015b60405180910390a150505050565b600e805460ff16906000610fba836120f6565b91906101000a81548160ff021916908360ff1602179055505060005b600a548160ff1610156110a95760006007600060088460ff168154811061100d57634e487b7160e01b600052603260045260246000fd5b6000918252602080832091909101546001600160a01b031683528201929092526040018120600401805460ff19169215159290921790915560088054600791839160ff861690811061106f57634e487b7160e01b600052603260045260246000fd5b60009182526020808320909101546001600160a01b03168352820192909252604001902060030155806110a1816120f6565b915050610fd6565b506000600d5542600f55604080516001600160a01b0384168152476020820152821515918101919091527fb4d61ba7d60f7ea93d3404c974254803d1cb15e05495096854c526d777697f5a90606001610f99565b5050565b600080600c5460ff16600381111561112957634e487b7160e01b600052602160045260246000fd5b146111685760405162461bcd60e51b815260206004820152600f60248201526e496e636f727265637420537461676560881b60448201526064016104a8565b3360009081526007602052604090206002015460ff16156111cb5760405162461bcd60e51b815260206004820152601b60248201527f596f752061726520616c726561647920726567697374657265642e000000000060448201526064016104a8565b600354600a54106112445760405162461bcd60e51b815260206004820152602260248201527f5468652063757272656e7420736176696e6720636972636c652069732066756c60448201527f6c2e00000000000000000000000000000000000000000000000000000000000060648201526084016104a8565b60025434146112955760405162461bcd60e51b815260206004820152600a60248201527f4e4f5420454e4f5547480000000000000000000000000000000000000000000060448201526064016104a8565b600a80549060006112a5836120db565b90915550506008805460018181019092557ff3f7a9fe364faab93b216da50a3214154f22a0a2b415b23a84c8169e8b636ee301805473ffffffffffffffffffffffffffffffffffffffff1990811633908117909255600980548085019091557f6e1540171b6c0c960b71a7020d9f60077f6af931a8bbf590da0223dacf75c7af0180548216831790556040805160a081018252838152346020828101918252828401878152600060608501818152608086018281529882526007909352948520935184546001600160a01b0391909116961695909517835590519582019590955591516002808401805492151560ff199384161790559451600384015592516004909201805492151592909316919091179091559054600b8054919290916113ce908490612079565b9091555050600654604080513381526020810192909252308282015260016060830152517f1e59f58e74bb3bbd9987920ed524e5b71a2108ce017110db76fae24a42480b489181900360800190a1600654604080519182523060208301523382820152517f208ce1a453fccb15b0280aac706840e7f5efcda5bd24988b3b0662eb98260b3e9181900360600190a1600354600a5414156114ac57600654600b54604080519283523060208401528201527f609c3813d1aba6358fd566e8d9f04c83383914abc278c46a878d3bcad30e3b459060600160405180910390a15b50565b336001600160a01b037f000000000000000000000000000000000000000000000000000000000000000016146115275760405162461bcd60e51b815260206004820152601f60248201527f4f6e6c7920565246436f6f7264696e61746f722063616e2066756c66696c6c0060448201526064016104a8565b6110fd8282611d9c565b6005546001600160a01b031633811461159a5760405162461bcd60e51b815260206004820152602560248201527f4f6e6c792074686520686f73742063616e2063616c6c20746869732066756e636044820152643a34b7b71760d91b60648201526084016104a8565b600280600c5460ff1660038111156115c257634e487b7160e01b600052602160045260246000fd5b146116015760405162461bcd60e51b815260206004820152600f60248201526e496e636f727265637420537461676560881b60448201526064016104a8565b6009541580156116175750600a54600e5460ff16145b6116b05760405162461bcd60e51b8152602060048201526044602482018190527f4e6f742065766572796f6e6520686173206265656e2070616964206f75742073908201527f6f20736176696e6720636972636c652063616e6e6f7420626520636f6d706c6560648201527f7465642e00000000000000000000000000000000000000000000000000000000608482015260a4016104a8565b60105460408051308152602081019290925242908201527fafb56c014d55eac673add8e09b9188e74643390e967644cdd15f51bc1f7fb6ec90606001610692565b3360009081526007602052604090206002015460ff1680151560011461177f5760405162461bcd60e51b815260206004820152602260248201527f55736572206973206e6f74207265676973746572656420666f7220436972636c60448201527f652e00000000000000000000000000000000000000000000000000000000000060648201526084016104a8565b600180600c5460ff1660038111156117a757634e487b7160e01b600052602160045260246000fd5b146117e65760405162461bcd60e51b815260206004820152600f60248201526e496e636f727265637420537461676560881b60448201526064016104a8565b33600090815260076020526040902060040154349060ff16156118715760405162461bcd60e51b815260206004820152603e60248201527f596f7520616c7265616479207061696420666f72207468697320726f756e642e60448201527f205761697420756e74696c206e65787420726f756e64207374617274732e000060648201526084016104a8565b600f544210156118e95760405162461bcd60e51b815260206004820152603c60248201527f526f756e6420686173206e6f742073746172746564207965742120576169742060448201527f666f7220686f737420746f2073746172742074686520726f756e642e0000000060648201526084016104a8565b3360009081526007602052604090206003015460015461190991906120c4565b81111580156119185750600081115b6119645760405162461bcd60e51b815260206004820152601260248201527f496e636f7272656374205061796d656e742e000000000000000000000000000060448201526064016104a8565b33600090815260076020526040812060030154611982908390612079565b9050600154811415611a0357336000908152600760205260408120600401805460ff19166001179055600d8054916119b9836120db565b9091555050604080513381526020810184905260018183015290517f4a73450c2793fd84f82756301e3a45c397400ac423e3fab8b60e1d1ea8dfffbf9181900360600190a1611a6b565b3360009081526007602052604081206003018054849290611a25908490612079565b9091555050604080513381526020810184905260018183015290517f75035e2937877db9dbc3e3c4b20e575ab07ef5a9503e6020886817efe26162ee9181900360600190a15b600a54600d541415610a5057604080513081524760208201526001918101919091527ffb76a476a9143c5e05fe05a4c91affd516d25f6ba0a692b05427ada3c945e2a790606001610f99565b6017546040517f70a08231000000000000000000000000000000000000000000000000000000008152306004820152600091906001600160a01b037f000000000000000000000000000000000000000000000000000000000000000016906370a082319060240160206040518083038186803b158015611b3657600080fd5b505afa158015611b4a573d6000803e3d6000fd5b505050506040513d601f19601f82011682018060405250810190611b6e9190611fce565b1015611bbc5760405162461bcd60e51b815260206004820152601c60248201527f4e6f7420656e6f756768204c494e4b20696e20636f6e74726163742e0000000060448201526064016104a8565b611bca601554601754611dbe565b905090565b6000600960195481548110611bf457634e487b7160e01b600052603260045260246000fd5b6000918252602090912001546001600160a01b0316919050565b6009548110611c855760405162461bcd60e51b815260206004820152602260248201527f72656d6f766557696e6e65723a20496e646578204f7574206f6620426f756e6460448201527f732e00000000000000000000000000000000000000000000000000000000000060648201526084016104a8565b805b600954611c96906001906120c4565b811015611d4a576009611caa826001612079565b81548110611cc857634e487b7160e01b600052603260045260246000fd5b600091825260209091200154600980546001600160a01b039092169183908110611d0257634e487b7160e01b600052603260045260246000fd5b6000918252602090912001805473ffffffffffffffffffffffffffffffffffffffff19166001600160a01b039290921691909117905580611d42816120db565b915050611c87565b506009805480611d6a57634e487b7160e01b600052603160045260246000fd5b6000828152602090208101600019908101805473ffffffffffffffffffffffffffffffffffffffff1916905501905550565b600954611db790600190611db1908490611f47565b90611f5a565b6019555050565b60007f00000000000000000000000000000000000000000000000000000000000000006001600160a01b0316634000aea07f000000000000000000000000000000000000000000000000000000000000000084866000604051602001611e2e929190918252602082015260400190565b6040516020818303038152906040526040518463ffffffff1660e01b8152600401611e5b93929190611fe6565b602060405180830381600087803b158015611e7557600080fd5b505af1158015611e89573d6000803e3d6000fd5b505050506040513d601f19601f82011682018060405250810190611ead9190611f8d565b5060008381526020818152604080832054815180840188905280830185905230606082015260808082018390528351808303909101815260a090910190925281519183019190912086845292909152611f07906001612079565b6000858152602081815260409182902092909255805180830187905280820184905281518082038301815260609091019091528051910120949350505050565b6000611f538284612116565b9392505050565b6000611f538284612079565b600060208284031215611f77578081fd5b81356001600160a01b0381168114611f53578182fd5b600060208284031215611f9e578081fd5b81518015158114611f53578182fd5b60008060408385031215611fbf578081fd5b50508035926020909101359150565b600060208284031215611fdf578081fd5b5051919050565b6001600160a01b0384168152600060208481840152606060408401528351806060850152825b818110156120285785810183015185820160800152820161200c565b818111156120395783608083870101525b50601f01601f19169290920160800195945050505050565b602081016004831061207357634e487b7160e01b600052602160045260246000fd5b91905290565b6000821982111561208c5761208c61212a565b500190565b6000826120a0576120a0612140565b500490565b60008160001904831182151516156120bf576120bf61212a565b500290565b6000828210156120d6576120d661212a565b500390565b60006000198214156120ef576120ef61212a565b5060010190565b600060ff821660ff81141561210d5761210d61212a565b60010192915050565b60008261212557612125612140565b500690565b634e487b7160e01b600052601160045260246000fd5b634e487b7160e01b600052601260045260246000fdfea2646970667358221220132e7fbf8d2acf86c744b4a78af237478f28eb352642e419a703fa7bde1d5f3e64736f6c63430008040033a264697066735822122036d0e93612b5457ec7cd1cc274d1defac82164b13fc2aaa9ff73530ceb100c8964736f6c63430008040033",
  "linkReferences": {},
  "deployedLinkReferences": {}
}