{
    "_format": "hh-sol-artifact-1",
    "contractName": "Main",
    "sourceName": "contracts/Main.sol",
    "abi": [
        {
            "inputs": [],
            "stateMutability": "nonpayable",
            "type": "constructor"
        },
        {
            "anonymous": false,
            "inputs": [
                {
                    "indexed": true,
                    "internalType": "bytes32",
                    "name": "role",
                    "type": "bytes32"
                },
                {
                    "indexed": true,
                    "internalType": "bytes32",
                    "name": "previousAdminRole",
                    "type": "bytes32"
                },
                {
                    "indexed": true,
                    "internalType": "bytes32",
                    "name": "newAdminRole",
                    "type": "bytes32"
                }
            ],
            "name": "RoleAdminChanged",
            "type": "event"
        },
        {
            "anonymous": false,
            "inputs": [
                {
                    "indexed": true,
                    "internalType": "bytes32",
                    "name": "role",
                    "type": "bytes32"
                },
                {
                    "indexed": true,
                    "internalType": "address",
                    "name": "account",
                    "type": "address"
                },
                {
                    "indexed": true,
                    "internalType": "address",
                    "name": "sender",
                    "type": "address"
                }
            ],
            "name": "RoleGranted",
            "type": "event"
        },
        {
            "anonymous": false,
            "inputs": [
                {
                    "indexed": true,
                    "internalType": "bytes32",
                    "name": "role",
                    "type": "bytes32"
                },
                {
                    "indexed": true,
                    "internalType": "address",
                    "name": "account",
                    "type": "address"
                },
                {
                    "indexed": true,
                    "internalType": "address",
                    "name": "sender",
                    "type": "address"
                }
            ],
            "name": "RoleRevoked",
            "type": "event"
        },
        {
            "anonymous": false,
            "inputs": [
                {
                    "indexed": false,
                    "internalType": "contract SavingCircle",
                    "name": "newSavingCircle",
                    "type": "address"
                }
            ],
            "name": "SavingCircleCreated",
            "type": "event"
        },
        {
            "inputs": [],
            "name": "DEFAULT_ADMIN_ROLE",
            "outputs": [
                {
                    "internalType": "bytes32",
                    "name": "",
                    "type": "bytes32"
                }
            ],
            "stateMutability": "view",
            "type": "function"
        },
        {
            "inputs": [
                {
                    "internalType": "uint256",
                    "name": "_saveAmountPerRound",
                    "type": "uint256"
                },
                {
                    "internalType": "uint256",
                    "name": "_groupSize",
                    "type": "uint256"
                },
                {
                    "internalType": "uint256",
                    "name": "_payTime",
                    "type": "uint256"
                }
            ],
            "name": "createSavingCircle",
            "outputs": [
                {
                    "internalType": "address",
                    "name": "",
                    "type": "address"
                }
            ],
            "stateMutability": "payable",
            "type": "function"
        },
        {
            "inputs": [
                {
                    "internalType": "bytes32",
                    "name": "role",
                    "type": "bytes32"
                }
            ],
            "name": "getRoleAdmin",
            "outputs": [
                {
                    "internalType": "bytes32",
                    "name": "",
                    "type": "bytes32"
                }
            ],
            "stateMutability": "view",
            "type": "function"
        },
        {
            "inputs": [
                {
                    "internalType": "bytes32",
                    "name": "role",
                    "type": "bytes32"
                },
                {
                    "internalType": "address",
                    "name": "account",
                    "type": "address"
                }
            ],
            "name": "grantRole",
            "outputs": [],
            "stateMutability": "nonpayable",
            "type": "function"
        },
        {
            "inputs": [
                {
                    "internalType": "bytes32",
                    "name": "role",
                    "type": "bytes32"
                },
                {
                    "internalType": "address",
                    "name": "account",
                    "type": "address"
                }
            ],
            "name": "hasRole",
            "outputs": [
                {
                    "internalType": "bool",
                    "name": "",
                    "type": "bool"
                }
            ],
            "stateMutability": "view",
            "type": "function"
        },
        {
            "inputs": [
                {
                    "internalType": "bytes32",
                    "name": "role",
                    "type": "bytes32"
                },
                {
                    "internalType": "address",
                    "name": "account",
                    "type": "address"
                }
            ],
            "name": "renounceRole",
            "outputs": [],
            "stateMutability": "nonpayable",
            "type": "function"
        },
        {
            "inputs": [
                {
                    "internalType": "bytes32",
                    "name": "role",
                    "type": "bytes32"
                },
                {
                    "internalType": "address",
                    "name": "account",
                    "type": "address"
                }
            ],
            "name": "revokeRole",
            "outputs": [],
            "stateMutability": "nonpayable",
            "type": "function"
        },
        {
            "inputs": [
                {
                    "internalType": "bytes4",
                    "name": "interfaceId",
                    "type": "bytes4"
                }
            ],
            "name": "supportsInterface",
            "outputs": [
                {
                    "internalType": "bool",
                    "name": "",
                    "type": "bool"
                }
            ],
            "stateMutability": "view",
            "type": "function"
        }
    ],
    "bytecode": "0x608060405234801561001057600080fd5b5061001c600033610021565b6100cd565b61002b828261002f565b5050565b6000828152602081815260408083206001600160a01b038516845290915290205460ff1661002b576000828152602081815260408083206001600160a01b03851684529091529020805460ff191660011790556100893390565b6001600160a01b0316816001600160a01b0316837f2f8788117e7eff1d82e926ec794901d17c78024a50270940304540a733656f0d60405160405180910390a45050565b613f10806100dc6000396000f3fe608060405260043610620000855760003560e01c806371df82ec116200005457806371df82ec146200015357806391d148541462000183578063a217fddf14620001cb578063d547741f14620001e257600080fd5b806301ffc9a7146200008a578063248a9ca314620000c45780632f2ff15d146200010757806336568abe146200012e575b600080fd5b3480156200009757600080fd5b50620000af620000a936600462000882565b62000207565b60405190151581526020015b60405180910390f35b348015620000d157600080fd5b50620000f8620000e33660046200082d565b60009081526020819052604090206001015490565b604051908152602001620000bb565b3480156200011457600080fd5b506200012c6200012636600462000846565b620002a1565b005b3480156200013b57600080fd5b506200012c6200014d36600462000846565b620002cf565b6200016a62000164366004620008c4565b62000363565b6040516001600160a01b039091168152602001620000bb565b3480156200019057600080fd5b50620000af620001a236600462000846565b6000918252602082815260408084206001600160a01b0393909316845291905290205460ff1690565b348015620001d857600080fd5b50620000f8600081565b348015620001ef57600080fd5b506200012c6200020136600462000846565b620003fe565b60007fffffffff0000000000000000000000000000000000000000000000000000000082167f7965db0b0000000000000000000000000000000000000000000000000000000014806200029b57507f01ffc9a7000000000000000000000000000000000000000000000000000000007fffffffff000000000000000000000000000000000000000000000000000000008316145b92915050565b600082815260208190526040902060010154620002be8162000427565b620002ca838362000436565b505050565b6001600160a01b0381163314620003535760405162461bcd60e51b815260206004820152602f60248201527f416363657373436f6e74726f6c3a2063616e206f6e6c792072656e6f756e636560448201527f20726f6c657320666f722073656c66000000000000000000000000000000000060648201526084015b60405180910390fd5b6200035f8282620004d6565b5050565b6000808484843360405162000378906200081f565b938452602084019290925260408301526001600160a01b03166060820152608001604051809103906000f080158015620003b6573d6000803e3d6000fd5b506040516001600160a01b03821681529091507f7cca4befb965370bc2797c090fe7d42c25ece5802777c0fb09b0c0211da3380f9060200160405180910390a1949350505050565b6000828152602081905260409020600101546200041b8162000427565b620002ca8383620004d6565b62000433813362000556565b50565b6000828152602081815260408083206001600160a01b038516845290915290205460ff166200035f576000828152602081815260408083206001600160a01b03851684529091529020805460ff19166001179055620004923390565b6001600160a01b0316816001600160a01b0316837f2f8788117e7eff1d82e926ec794901d17c78024a50270940304540a733656f0d60405160405180910390a45050565b6000828152602081815260408083206001600160a01b038516845290915290205460ff16156200035f576000828152602081815260408083206001600160a01b0385168085529252808320805460ff1916905551339285917ff6391f5c32d9c69d2a47ea670b442974b53935d1edc7fd64eb21e047a839171b9190a45050565b6000828152602081815260408083206001600160a01b038516845290915290205460ff166200035f5762000595816001600160a01b03166014620005dd565b620005a2836020620005dd565b604051602001620005b5929190620008f0565b60408051601f198184030181529082905262461bcd60e51b82526200034a9160040162000975565b60606000620005ee836002620009c5565b620005fb906002620009aa565b67ffffffffffffffff8111156200062257634e487b7160e01b600052604160045260246000fd5b6040519080825280601f01601f1916602001820160405280156200064d576020820181803683370190505b5090507f3000000000000000000000000000000000000000000000000000000000000000816000815181106200069357634e487b7160e01b600052603260045260246000fd5b60200101906001600160f81b031916908160001a9053507f780000000000000000000000000000000000000000000000000000000000000081600181518110620006ed57634e487b7160e01b600052603260045260246000fd5b60200101906001600160f81b031916908160001a905350600062000713846002620009c5565b62000720906001620009aa565b90505b6001811115620007c7577f303132333435363738396162636465660000000000000000000000000000000085600f16601081106200077157634e487b7160e01b600052603260045260246000fd5b1a60f81b8282815181106200079657634e487b7160e01b600052603260045260246000fd5b60200101906001600160f81b031916908160001a90535060049490941c93620007bf8162000a1a565b905062000723565b508315620008185760405162461bcd60e51b815260206004820181905260248201527f537472696e67733a20686578206c656e67746820696e73756666696369656e7460448201526064016200034a565b9392505050565b6134908062000a4b83390190565b6000602082840312156200083f578081fd5b5035919050565b6000806040838503121562000859578081fd5b8235915060208301356001600160a01b038116811462000877578182fd5b809150509250929050565b60006020828403121562000894578081fd5b81357fffffffff000000000000000000000000000000000000000000000000000000008116811462000818578182fd5b600080600060608486031215620008d9578081fd5b505081359360208301359350604090920135919050565b7f416363657373436f6e74726f6c3a206163636f756e74200000000000000000008152600083516200092a816017850160208801620009e7565b7f206973206d697373696e6720726f6c6520000000000000000000000000000000601791840191820152835162000969816028840160208801620009e7565b01602801949350505050565b602081526000825180602084015262000996816040850160208701620009e7565b601f01601f19169190910160400192915050565b60008219821115620009c057620009c062000a34565b500190565b6000816000190483118215151615620009e257620009e262000a34565b500290565b60005b8381101562000a04578181015183820152602001620009ea565b8381111562000a14576000848401525b50505050565b60008162000a2c5762000a2c62000a34565b506000190190565b634e487b7160e01b600052601160045260246000fdfe60c06040819052600060048190556009819055600a819055600c55600d805460ff19166001179055600f80546001600160a01b0319908116732ca8e0c643bde4c2e08ab1fa0da3401adad7734d17909155601080548216737a1bac17ccc5b313516c5e16fb24f7659aa5ebed17905560118054821673326c977e6efc84e512bb9c30f76e30c160ed06fb908117909155601280549092161790557f79d3d8832d904592c0bf9818b621522c988bb8b0c05cdc3b15aea1b6e8db0c156013557f4b09e658ed251bcafeebbc69400383d49f344ace09b9576fe248bb02c003fe9f60145567016345785d8a0000601581905560165562003490388190039081908339810160408190526200011191620005c3565b600f546011546001600160601b0319606092831b811660a052911b166080526001600160a01b0381166200018c5760405162461bcd60e51b815260206004820152601d60248201527f486f7374277320616464726573732063616e6e6f74206265207a65726f00000060448201526064015b60405180910390fd5b6001831180156200019e5750600c8311155b620002125760405162461bcd60e51b815260206004820152603e60248201527f5f67726f757053697a65206d7573742062652067726561746572207468616e2060448201527f3120616e64206c657373207468616e206f7220657175616c20746f2031320000606482015260840162000183565b66038d7ea4c680006200022e85670de0b6b3a76400006200062d565b1015620002925760405162461bcd60e51b815260206004820152602b60248201527f536176696e6720416d6f756e742063616e6e6f74206265206c6573732074686160448201526a0dc40605c606062408aa8960ab1b606482015260840162000183565b6001821015620002f15760405162461bcd60e51b815260206004820152602360248201527f5061792054696d652063616e6e6f74206265206c657373207468616e2061206460448201526230bc9760e91b606482015260840162000183565b6001849055600284905560038390556004829055600580546001600160a01b0319166001600160a01b038316179055600b805460ff19169055600980549060006200033c836200064f565b90915550506007805460018082019092557fa66cc928b5edb82af9bd49922954155ab7b0942694bea4ce44661d9a8736c688018054336001600160a01b0319918216811790925560088054938401815560009081527ff3f7a9fe364faab93b216da50a3214154f22a0a2b415b23a84c8169e8b636ee39093018054909116821790556005546002546040516001600160a01b039092169291620003df90620005b5565b6001600160a01b0393841681529290911660208301526040820152606001604051809103906000f0801580156200041a573d6000803e3d6000fd5b506040805160c08101825233808252346020808401918252600084860181815260608601828152608087018381526001600160a01b038a811660a08a019081529785526006909552978320965187546001600160a01b03191690851617875593516001870155516002808701805460ff1916921515929092179091559251600386015594516004909401805493516001600160a81b0319909416941515610100600160a81b0319169490941761010093909116929092029190911790915554600a80549394509092909190620004f290849062000612565b909155505060408051338152600160208201527f86e0e8c0212d53415f71de58d0e6b05516b6068221df1a31306672d8ec2bbbfe910160405180910390a16040513381527f39e88f253dc4ea790c2b355aec8c5ac86335a9925c3815b62b74bcdfaffe68ec9060200160405180910390a17fdc0b9b683765dbac96f1efb60f4330a1661c6728d9cd4cafd29aed91dddb09a1600154600354604051620005a2929190918252602082015260400190565b60405180910390a1505050505062000683565b6105918062002eff83390190565b60008060008060808587031215620005d9578384fd5b845160208601516040870151606088015192965090945092506001600160a01b038116811462000607578182fd5b939692955090935050565b600082198211156200062857620006286200066d565b500190565b60008160001904831182151516156200064a576200064a6200066d565b500290565b60006000198214156200066657620006666200066d565b5060010190565b634e487b7160e01b600052601160045260246000fd5b60805160601c60a05160601c612842620006bd6000396000818161157e0152611edc015260008181611bc50152611ead01526128426000f3fe608060405260043610620001875760003560e01c8063743c81ab11620000db57806394985ddd1162000089578063c86b33471162000060578063c86b3347146200040a578063d8d797001462000422578063f437bc59146200042c57600080fd5b806394985ddd14620003a257806394ddcf4c14620003c7578063c040e6b814620003df57600080fd5b80637d92654c11620000be5780637d92654c146200036857806386ac340b14620003805780638d981e9c146200038a57600080fd5b8063743c81ab146200033857806378e97925146200035057600080fd5b806342619f66116200013957806363b635ea116200011c57806363b635ea14620002f057806367a52793146200030857806369ef5e0a146200032057600080fd5b806342619f6614620002c05780635b0a384314620002d857600080fd5b806324294b1f116200016e57806324294b1f14620002675780632a18933c14620002815780632d50e80d14620002a857600080fd5b806309e69ede146200018c578063146ca5311462000238575b600080fd5b3480156200019957600080fd5b50620001f1620001ab3660046200206c565b600660205260009081526040902080546001820154600283015460038401546004909401546001600160a01b0393841694929360ff928316939282169161010090041686565b604080516001600160a01b03978816815260208101969096529315159385019390935260608401919091521515608083015290911660a082015260c0015b60405180910390f35b3480156200024557600080fd5b50600d54620002549060ff1681565b60405160ff90911681526020016200022f565b3480156200027457600080fd5b506200027f62000467565b005b3480156200028e57600080fd5b5062000299600c5481565b6040519081526020016200022f565b348015620002b557600080fd5b506200029960045481565b348015620002cd57600080fd5b506200029960175481565b348015620002e557600080fd5b506200027f620006a9565b348015620002fd57600080fd5b506200029960035481565b3480156200031557600080fd5b506200029960025481565b3480156200032d57600080fd5b506200027f62000a7f565b3480156200034557600080fd5b506200029960015481565b3480156200035d57600080fd5b5062000299600e5481565b3480156200037557600080fd5b506200027f62000b72565b6200027f62001156565b3480156200039757600080fd5b5062000299600a5481565b348015620003af57600080fd5b506200027f620003c1366004620020b7565b62001573565b348015620003d457600080fd5b506200027f620015f9565b348015620003ec57600080fd5b50600b54620003fb9060ff1681565b6040516200022f919062002160565b3480156200041757600080fd5b506200029960095481565b6200027f620017c2565b3480156200043957600080fd5b506005546200044e906001600160a01b031681565b6040516001600160a01b0390911681526020016200022f565b6005546001600160a01b0316338114620004d65760405162461bcd60e51b815260206004820152602560248201527f4f6e6c792074686520686f73742063616e2063616c6c20746869732066756e636044820152643a34b7b71760d91b60648201526084015b60405180910390fd5b600080600b5460ff166003811115620004ff57634e487b7160e01b600052602160045260246000fd5b14620005405760405162461bcd60e51b815260206004820152600f60248201526e496e636f727265637420537461676560881b6044820152606401620004cd565b600d5460ff16600114620005bd5760405162461bcd60e51b815260206004820152603960248201527f546869732066756e6374696f6e2063616e206f6e6c792062652063616c6c656460448201527f20696620697427732074686520666972737420726f756e642e000000000000006064820152608401620004cd565b600354600954146200065e5760405162461bcd60e51b815260206004820152605260248201527f546865726520617265207374696c6c2073706f7473206c6566742e20416c6c2060448201527f73706f7473206d7573742062652066696c6c656420696e206f7264657220746f60648201527f2073746172742074686520726f756e64732e0000000000000000000000000000608482015260a401620004cd565b600b805460ff1916600117905542600e8190556040519081527fbb3283bb071b010800e97796532a82d0f521816223f96a43f87709384f287e2c906020015b60405180910390a15050565b6005546001600160a01b0316338114620007145760405162461bcd60e51b815260206004820152602560248201527f4f6e6c792074686520686f73742063616e2063616c6c20746869732066756e636044820152643a34b7b71760d91b6064820152608401620004cd565b600380600b5460ff1660038111156200073d57634e487b7160e01b600052602160045260246000fd5b146200077e5760405162461bcd60e51b815260206004820152600f60248201526e496e636f727265637420537461676560881b6044820152606401620004cd565b60004711620007d05760405162461bcd60e51b815260206004820152601760248201527f4e6f2066756e647320746f20646973747269627574652e0000000000000000006044820152606401620004cd565b606060005b6009548160ff161015620008da576006600060078360ff16815481106200080c57634e487b7160e01b600052603260045260246000fd5b60009182526020808320909101546001600160a01b0316835282019290925260400190206004015460ff1615620008c55760078160ff16815481106200086257634e487b7160e01b600052603260045260246000fd5b9060005260206000200160009054906101000a90046001600160a01b0316828260ff1681518110620008a457634e487b7160e01b600052603260045260246000fd5b60200260200101906001600160a01b031690816001600160a01b0316815250505b80620008d18162002215565b915050620007d5565b5060005b81518160ff16101562000a79576000828260ff16815181106200091157634e487b7160e01b600052603260045260246000fd5b60200260200101516001600160a01b0316835147620009319190620021a4565b604051600081818185875af1925050503d80600081146200096f576040519150601f19603f3d011682016040523d82523d6000602084013e62000974565b606091505b5050905080620009c75760405162461bcd60e51b815260206004820152601460248201527f4661696c656420746f2073656e642045746865720000000000000000000000006044820152606401620004cd565b7fdb20fc107ba75acedcbc69764c0e9d57a3247c5bb30cd527186362a338e9dd513047858560ff168151811062000a0e57634e487b7160e01b600052603260045260246000fd5b602002602001015186514762000a259190620021a4565b60405162000a5b94939291906001600160a01b039485168152602081019390935292166040820152606081019190915260800190565b60405180910390a1508062000a708162002215565b915050620008de565b50505050565b6005546001600160a01b031633811462000aea5760405162461bcd60e51b815260206004820152602560248201527f4f6e6c792074686520686f73742063616e2063616c6c20746869732066756e636044820152643a34b7b71760d91b6064820152608401620004cd565b600380600b5460ff16600381111562000b1357634e487b7160e01b600052602160045260246000fd5b1462000b545760405162461bcd60e51b815260206004820152600f60248201526e496e636f727265637420537461676560881b6044820152606401620004cd565b60076004600082825462000b69919062002189565b90915550505050565b6005546001600160a01b031633811462000bdd5760405162461bcd60e51b815260206004820152602560248201527f4f6e6c792074686520686f73742063616e2063616c6c20746869732066756e636044820152643a34b7b71760d91b6064820152608401620004cd565b600180600b5460ff16600381111562000c0657634e487b7160e01b600052602160045260246000fd5b1462000c475760405162461bcd60e51b815260206004820152600f60248201526e496e636f727265637420537461676560881b6044820152606401620004cd565b60045462000c599062015180620021bb565b600e5462000c68919062002189565b42111562000d3b57600b805460ff1916600317905560045462000c8f9062015180620021bb565b600e5462000c9e919062002189565b42111562000d3b5760405162461bcd60e51b815260206004820152604960248201527f43414e4e4f5420454e4420524f554e4420414654455220444541444c494e452e60448201527f20457874656e6420446561646c696e65206f7220456d657267656e637920576960648201527f746864726177616c2e0000000000000000000000000000000000000000000000608482015260a401620004cd565b60005b6009548160ff16101562000ebd576006600060078360ff168154811062000d7557634e487b7160e01b600052603260045260246000fd5b60009182526020808320909101546001600160a01b0316835282019290925260400190206004015460ff1662000ea857600b805460ff191660031790556007805460069160009160ff851690811062000dde57634e487b7160e01b600052603260045260246000fd5b60009182526020808320909101546001600160a01b0316835282019290925260400190206004015460ff16151560011462000ea85760405162461bcd60e51b815260206004820152604860248201527f41207061727469636970616e74206469646e27742066756c6c79207061792e2060448201527f457874656e6420446561646c696e65206f7220456d657267656e63792057697460648201527f6864726177616c2e000000000000000000000000000000000000000000000000608482015260a401620004cd565b8062000eb48162002215565b91505062000d3e565b5062000ec862001b88565b50600062000ed562001ca8565b90506000816001600160a01b031660015460405160006040518083038185875af1925050503d806000811462000f28576040519150601f19603f3d011682016040523d82523d6000602084013e62000f2d565b606091505b505090508062000f445762000f4460175462001ce8565b8062000f935760405162461bcd60e51b815260206004820152601460248201527f4661696c656420746f2073656e642045746865720000000000000000000000006044820152606401620004cd565b600954600d5460ff1614801562000faa5750600854155b1562000ffd57600b805460ff1916600217905560408051308152600160208201527f3240c17c36b01e950aa4228cbe13e70858171f13512c6889cd210f2582710c4f91015b60405180910390a150505050565b600d805460ff16906000620010128362002215565b91906101000a81548160ff021916908360ff1602179055505060005b6009548160ff161015620011075760006006600060078460ff16815481106200106757634e487b7160e01b600052603260045260246000fd5b6000918252602080832091909101546001600160a01b031683528201929092526040018120600401805460ff19169215159290921790915560078054600691839160ff8616908110620010ca57634e487b7160e01b600052603260045260246000fd5b60009182526020808320909101546001600160a01b0316835282019290925260400190206003015580620010fe8162002215565b9150506200102e565b506000600c5542600e55604080516001600160a01b038416815282151560208201527f556893b74a80452034c2d5fe4792dd811f01d619f629283edcb4e91d365be7d2910162000fef565b5050565b600080600b5460ff1660038111156200117f57634e487b7160e01b600052602160045260246000fd5b14620011c05760405162461bcd60e51b815260206004820152600f60248201526e496e636f727265637420537461676560881b6044820152606401620004cd565b3360009081526006602052604090206002015460ff1615620012255760405162461bcd60e51b815260206004820152601b60248201527f596f752061726520616c726561647920726567697374657265642e00000000006044820152606401620004cd565b60035460095410620012a05760405162461bcd60e51b815260206004820152602260248201527f5468652063757272656e7420736176696e6720636972636c652069732066756c60448201527f6c2e0000000000000000000000000000000000000000000000000000000000006064820152608401620004cd565b6002543414620012f35760405162461bcd60e51b815260206004820152600a60248201527f4e4f5420454e4f554748000000000000000000000000000000000000000000006044820152606401620004cd565b600980549060006200130583620021f7565b90915550506007805460018082019092557fa66cc928b5edb82af9bd49922954155ab7b0942694bea4ce44661d9a8736c6880180543373ffffffffffffffffffffffffffffffffffffffff19918216811790925560088054938401815560009081527ff3f7a9fe364faab93b216da50a3214154f22a0a2b415b23a84c8169e8b636ee39093018054909116821790556005546002546040516001600160a01b039092169291620013b5906200205e565b6001600160a01b0393841681529290911660208301526040820152606001604051809103906000f080158015620013f0573d6000803e3d6000fd5b506040805160c08101825233808252346020808401918252600084860181815260608601828152608087018381526001600160a01b038a811660a08a0190815297855260069095529783209651875473ffffffffffffffffffffffffffffffffffffffff191690851617875593516001870155516002808701805460ff1916921515929092179091559251600386015594516004909401805493517fffffffffffffffffffffff0000000000000000000000000000000000000000009094169415157fffffffffffffffffffffff0000000000000000000000000000000000000000ff169490941761010093909116929092029190911790915554600a805493945090929091906200150490849062002189565b909155505060408051338152600160208201527f86e0e8c0212d53415f71de58d0e6b05516b6068221df1a31306672d8ec2bbbfe910160405180910390a16040513381527f39e88f253dc4ea790c2b355aec8c5ac86335a9925c3815b62b74bcdfaffe68ec906020016200069d565b336001600160a01b037f00000000000000000000000000000000000000000000000000000000000000001614620015ed5760405162461bcd60e51b815260206004820152601f60248201527f4f6e6c7920565246436f6f7264696e61746f722063616e2066756c66696c6c006044820152606401620004cd565b62001152828262001e83565b6005546001600160a01b0316338114620016645760405162461bcd60e51b815260206004820152602560248201527f4f6e6c792074686520686f73742063616e2063616c6c20746869732066756e636044820152643a34b7b71760d91b6064820152608401620004cd565b600280600b5460ff1660038111156200168d57634e487b7160e01b600052602160045260246000fd5b14620016ce5760405162461bcd60e51b815260206004820152600f60248201526e496e636f727265637420537461676560881b6044820152606401620004cd565b600854158015620016e55750600954600d5460ff16145b620017805760405162461bcd60e51b8152602060048201526044602482018190527f4e6f742065766572796f6e6520686173206265656e2070616964206f75742073908201527f6f20736176696e6720636972636c652063616e6e6f7420626520636f6d706c6560648201527f7465642e00000000000000000000000000000000000000000000000000000000608482015260a401620004cd565b600e5460408051308152602081019290925242908201527fafb56c014d55eac673add8e09b9188e74643390e967644cdd15f51bc1f7fb6ec906060016200069d565b3360009081526006602052604090206002015460ff16801515600114620018525760405162461bcd60e51b815260206004820152602260248201527f55736572206973206e6f74207265676973746572656420666f7220436972636c60448201527f652e0000000000000000000000000000000000000000000000000000000000006064820152608401620004cd565b600180600b5460ff1660038111156200187b57634e487b7160e01b600052602160045260246000fd5b14620018bc5760405162461bcd60e51b815260206004820152600f60248201526e496e636f727265637420537461676560881b6044820152606401620004cd565b33600090815260066020526040902060040154349060ff1615620019495760405162461bcd60e51b815260206004820152603e60248201527f596f7520616c7265616479207061696420666f72207468697320726f756e642e60448201527f205761697420756e74696c206e65787420726f756e64207374617274732e00006064820152608401620004cd565b600e54421015620019c35760405162461bcd60e51b815260206004820152603c60248201527f526f756e6420686173206e6f742073746172746564207965742120576169742060448201527f666f7220686f737420746f2073746172742074686520726f756e642e000000006064820152608401620004cd565b33600090815260066020526040902060030154600154620019e59190620021dd565b8111158015620019f55750600081115b62001a435760405162461bcd60e51b815260206004820152601260248201527f496e636f7272656374205061796d656e742e00000000000000000000000000006044820152606401620004cd565b3360009081526006602052604081206003015462001a6390839062002189565b905060015481141562001ae157336000908152600660205260408120600401805460ff19166001179055600c80549162001a9d83620021f7565b909155505060408051338152600160208201527fccbac6112fdc4ba39514c04a2708e6609b9130548eb82097187afcf7a544ded4910160405180910390a162001b44565b336000908152600660205260408120600301805484929062001b0590849062002189565b909155505060408051338152600160208201527f88c4248de38a9b4e4b732209861897e40103ce1bc43ae334d6a226265cb614e5910160405180910390a15b600954600c54141562000a795760408051308152600160208201527f7003ba81b05dddae06672f2cea8fc81225f010a44a16a9c2365979a60b68931d910162000fef565b6015546040517f70a08231000000000000000000000000000000000000000000000000000000008152306004820152600091906001600160a01b037f000000000000000000000000000000000000000000000000000000000000000016906370a082319060240160206040518083038186803b15801562001c0857600080fd5b505afa15801562001c1d573d6000803e3d6000fd5b505050506040513d601f19601f8201168201806040525081019062001c439190620020d9565b101562001c935760405162461bcd60e51b815260206004820152601c60248201527f4e6f7420656e6f756768204c494e4b20696e20636f6e74726163742e000000006044820152606401620004cd565b62001ca360135460155462001ea9565b905090565b600060086017548154811062001cce57634e487b7160e01b600052603260045260246000fd5b6000918252602090912001546001600160a01b0316919050565b600854811062001d615760405162461bcd60e51b815260206004820152602260248201527f72656d6f766557696e6e65723a20496e646578204f7574206f6620426f756e6460448201527f732e0000000000000000000000000000000000000000000000000000000000006064820152608401620004cd565b805b60085462001d7490600190620021dd565b81101562001e3057600862001d8b82600162002189565b8154811062001daa57634e487b7160e01b600052603260045260246000fd5b600091825260209091200154600880546001600160a01b03909216918390811062001de557634e487b7160e01b600052603260045260246000fd5b6000918252602090912001805473ffffffffffffffffffffffffffffffffffffffff19166001600160a01b03929092169190911790558062001e2781620021f7565b91505062001d63565b50600880548062001e5157634e487b7160e01b600052603160045260246000fd5b6000828152602090208101600019908101805473ffffffffffffffffffffffffffffffffffffffff1916905501905550565b60085462001ea29060019062001e9b9084906200203b565b9062002050565b6017555050565b60007f00000000000000000000000000000000000000000000000000000000000000006001600160a01b0316634000aea07f00000000000000000000000000000000000000000000000000000000000000008486600060405160200162001f1a929190918252602082015260400190565b6040516020818303038152906040526040518463ffffffff1660e01b815260040162001f4993929190620020f2565b602060405180830381600087803b15801562001f6457600080fd5b505af115801562001f79573d6000803e3d6000fd5b505050506040513d601f19601f8201168201806040525081019062001f9f919062002095565b5060008381526020818152604080832054815180840188905280830185905230606082015260808082018390528351808303909101815260a09091019092528151918301919091208684529290915262001ffb90600162002189565b6000858152602081815260409182902092909255805180830187905280820184905281518082038301815260609091019091528051910120949350505050565b600062002049828462002238565b9392505050565b600062002049828462002189565b610591806200227c83390190565b6000602082840312156200207e578081fd5b81356001600160a01b038116811462002049578182fd5b600060208284031215620020a7578081fd5b8151801515811462002049578182fd5b60008060408385031215620020ca578081fd5b50508035926020909101359150565b600060208284031215620020eb578081fd5b5051919050565b6001600160a01b0384168152600060208481840152606060408401528351806060850152825b81811015620021365785810183015185820160800152820162002118565b81811115620021485783608083870101525b50601f01601f19169290920160800195945050505050565b60208101600483106200218357634e487b7160e01b600052602160045260246000fd5b91905290565b600082198211156200219f576200219f6200224f565b500190565b600082620021b657620021b662002265565b500490565b6000816000190483118215151615620021d857620021d86200224f565b500290565b600082821015620021f257620021f26200224f565b500390565b60006000198214156200220e576200220e6200224f565b5060010190565b600060ff821660ff8114156200222f576200222f6200224f565b60010192915050565b6000826200224a576200224a62002265565b500690565b634e487b7160e01b600052601160045260246000fd5b634e487b7160e01b600052601260045260246000fdfe6080604052600480546001600160a01b0319908116737d2768de32b0b80b7a3454c06bdac94a69ddc7a91790915560058054821673028171bca77440897b824ca71d1c56cac55b68a317905560068054909116736b175474e89094c44da98b954eedeac495271d0f17905534801561007657600080fd5b5060405161059138038061059183398101604081905261009591610280565b600080546001600160a01b03199081166001600160a01b0386811691909117909255600280548216858416179055600180543392168217905560038390556006546040516323b872dd60e01b8152600481019290925230602483015260448201849052909116906323b872dd90606401602060405180830381600087803b15801561011f57600080fd5b505af1158015610133573d6000803e3d6000fd5b505050506040513d601f19601f8201168201806040525081019061015791906102bb565b506006546004805460405163095ea7b360e01b81526001600160a01b0391821692810192909252602482018490529091169063095ea7b390604401602060405180830381600087803b1580156101ac57600080fd5b505af11580156101c0573d6000803e3d6000fd5b505050506040513d601f19601f820116820180604052508101906101e491906102bb565b506004805460065460405163e8eda9df60e01b81526001600160a01b03918216938101939093526024830184905230604484015260006064840152169063e8eda9df90608401600060405180830381600087803b15801561024457600080fd5b505af1158015610258573d6000803e3d6000fd5b505050505050506102e2565b80516001600160a01b038116811461027b57600080fd5b919050565b600080600060608486031215610294578283fd5b61029d84610264565b92506102ab60208501610264565b9150604084015190509250925092565b6000602082840312156102cc578081fd5b815180151581146102db578182fd5b9392505050565b6102a0806102f16000396000f3fe608060405234801561001057600080fd5b506004361061002b5760003560e01c806312424e3f14610030575b600080fd5b61003861003a565b005b60005473ffffffffffffffffffffffffffffffffffffffff16331461005e57600080fd5b6005546040517f70a0823100000000000000000000000000000000000000000000000000000000815230600482015260009173ffffffffffffffffffffffffffffffffffffffff16906370a082319060240160206040518083038186803b1580156100c857600080fd5b505afa1580156100dc573d6000803e3d6000fd5b505050506040513d601f19601f820116820180604052508101906101009190610252565b60048054600654600354600254604051631a4ca37b60e21b815273ffffffffffffffffffffffffffffffffffffffff9384169581019590955260248501919091528116604484015292935091909116906369328dec90606401602060405180830381600087803b15801561017357600080fd5b505af1158015610187573d6000803e3d6000fd5b505050506040513d601f19601f820116820180604052508101906101ab9190610252565b5060048054600654600154604051631a4ca37b60e21b815273ffffffffffffffffffffffffffffffffffffffff9283169481019490945260001960248501528116604484015216906369328dec90606401602060405180830381600087803b15801561021657600080fd5b505af115801561022a573d6000803e3d6000fd5b505050506040513d601f19601f8201168201806040525081019061024e9190610252565b5050565b600060208284031215610263578081fd5b505191905056fea26469706673582212203e6ba2f54ae6d5990b001fa39e583930a72436db4c1cebbcb37a65cd0ca6d7e664736f6c63430008040033a26469706673582212206b6fef9c44f9db6a08aa7cd41d151866803f40f37f24b477e3cd9ff0ef7986ec64736f6c634300080400336080604052600480546001600160a01b0319908116737d2768de32b0b80b7a3454c06bdac94a69ddc7a91790915560058054821673028171bca77440897b824ca71d1c56cac55b68a317905560068054909116736b175474e89094c44da98b954eedeac495271d0f17905534801561007657600080fd5b5060405161059138038061059183398101604081905261009591610280565b600080546001600160a01b03199081166001600160a01b0386811691909117909255600280548216858416179055600180543392168217905560038390556006546040516323b872dd60e01b8152600481019290925230602483015260448201849052909116906323b872dd90606401602060405180830381600087803b15801561011f57600080fd5b505af1158015610133573d6000803e3d6000fd5b505050506040513d601f19601f8201168201806040525081019061015791906102bb565b506006546004805460405163095ea7b360e01b81526001600160a01b0391821692810192909252602482018490529091169063095ea7b390604401602060405180830381600087803b1580156101ac57600080fd5b505af11580156101c0573d6000803e3d6000fd5b505050506040513d601f19601f820116820180604052508101906101e491906102bb565b506004805460065460405163e8eda9df60e01b81526001600160a01b03918216938101939093526024830184905230604484015260006064840152169063e8eda9df90608401600060405180830381600087803b15801561024457600080fd5b505af1158015610258573d6000803e3d6000fd5b505050505050506102e2565b80516001600160a01b038116811461027b57600080fd5b919050565b600080600060608486031215610294578283fd5b61029d84610264565b92506102ab60208501610264565b9150604084015190509250925092565b6000602082840312156102cc578081fd5b815180151581146102db578182fd5b9392505050565b6102a0806102f16000396000f3fe608060405234801561001057600080fd5b506004361061002b5760003560e01c806312424e3f14610030575b600080fd5b61003861003a565b005b60005473ffffffffffffffffffffffffffffffffffffffff16331461005e57600080fd5b6005546040517f70a0823100000000000000000000000000000000000000000000000000000000815230600482015260009173ffffffffffffffffffffffffffffffffffffffff16906370a082319060240160206040518083038186803b1580156100c857600080fd5b505afa1580156100dc573d6000803e3d6000fd5b505050506040513d601f19601f820116820180604052508101906101009190610252565b60048054600654600354600254604051631a4ca37b60e21b815273ffffffffffffffffffffffffffffffffffffffff9384169581019590955260248501919091528116604484015292935091909116906369328dec90606401602060405180830381600087803b15801561017357600080fd5b505af1158015610187573d6000803e3d6000fd5b505050506040513d601f19601f820116820180604052508101906101ab9190610252565b5060048054600654600154604051631a4ca37b60e21b815273ffffffffffffffffffffffffffffffffffffffff9283169481019490945260001960248501528116604484015216906369328dec90606401602060405180830381600087803b15801561021657600080fd5b505af115801561022a573d6000803e3d6000fd5b505050506040513d601f19601f8201168201806040525081019061024e9190610252565b5050565b600060208284031215610263578081fd5b505191905056fea26469706673582212203e6ba2f54ae6d5990b001fa39e583930a72436db4c1cebbcb37a65cd0ca6d7e664736f6c63430008040033a2646970667358221220a9b4b234c220f9bc1b38528d23e0b00986ff61fc193e0b2eeecd7c6b4f2615e664736f6c63430008040033",
    "linkReferences": {},
    "deployedLinkReferences": {}
}