{
  "_format": "hh-sol-artifact-1",
  "contractName": "SimpleSavingCircle",
  "sourceName": "contracts/SimpleSavingCircle.sol",
  "abi": [
    {
      "inputs": [],
      "stateMutability": "nonpayable",
      "type": "constructor"
    },
    {
      "anonymous": false,
      "inputs": [
        {
          "indexed": false,
          "internalType": "bytes32",
          "name": "circleId",
          "type": "bytes32"
        }
      ],
      "name": "AllRoundsCompleted",
      "type": "event"
    },
    {
      "anonymous": false,
      "inputs": [
        {
          "indexed": false,
          "internalType": "bytes32",
          "name": "circleId",
          "type": "bytes32"
        }
      ],
      "name": "CompleteCircle",
      "type": "event"
    },
    {
      "anonymous": false,
      "inputs": [
        {
          "indexed": false,
          "internalType": "bytes32",
          "name": "circleId",
          "type": "bytes32"
        },
        {
          "indexed": false,
          "internalType": "uint256",
          "name": "totalFunds",
          "type": "uint256"
        },
        {
          "indexed": false,
          "internalType": "address",
          "name": "participantAddress",
          "type": "address"
        },
        {
          "indexed": false,
          "internalType": "uint256",
          "name": "sentFunds",
          "type": "uint256"
        }
      ],
      "name": "EmergencyWithdrawal",
      "type": "event"
    },
    {
      "anonymous": false,
      "inputs": [
        {
          "indexed": false,
          "internalType": "bytes32",
          "name": "circleId",
          "type": "bytes32"
        },
        {
          "indexed": false,
          "internalType": "uint256",
          "name": "amountPaid",
          "type": "uint256"
        }
      ],
      "name": "EveryonePaid",
      "type": "event"
    },
    {
      "anonymous": false,
      "inputs": [
        {
          "indexed": false,
          "internalType": "bytes32",
          "name": "circleId",
          "type": "bytes32"
        }
      ],
      "name": "EveryonePaidDeposit",
      "type": "event"
    },
    {
      "anonymous": false,
      "inputs": [
        {
          "indexed": false,
          "internalType": "bytes32",
          "name": "circleId",
          "type": "bytes32"
        },
        {
          "indexed": false,
          "internalType": "string",
          "name": "circleCid",
          "type": "string"
        },
        {
          "indexed": false,
          "internalType": "address",
          "name": "host",
          "type": "address"
        },
        {
          "indexed": false,
          "internalType": "uint256",
          "name": "payTime",
          "type": "uint256"
        },
        {
          "indexed": false,
          "internalType": "uint256",
          "name": "saveAmount",
          "type": "uint256"
        },
        {
          "indexed": false,
          "internalType": "uint256",
          "name": "groupSize",
          "type": "uint256"
        },
        {
          "indexed": false,
          "internalType": "address[]",
          "name": "participantAddresses",
          "type": "address[]"
        },
        {
          "indexed": false,
          "internalType": "address[]",
          "name": "possibleWinnerAddresses",
          "type": "address[]"
        },
        {
          "components": [
            {
              "internalType": "enum SimpleSavingCircle.Stages",
              "name": "stage",
              "type": "uint8"
            },
            {
              "internalType": "uint256",
              "name": "roundStartTime",
              "type": "uint256"
            },
            {
              "internalType": "uint256",
              "name": "participantCounter",
              "type": "uint256"
            },
            {
              "internalType": "uint256",
              "name": "paidCounter",
              "type": "uint256"
            },
            {
              "internalType": "uint256",
              "name": "paidDepositCounter",
              "type": "uint256"
            },
            {
              "internalType": "uint256",
              "name": "roundCounter",
              "type": "uint256"
            },
            {
              "internalType": "bool",
              "name": "paidOut",
              "type": "bool"
            },
            {
              "internalType": "bool",
              "name": "everyonePaidDeposit",
              "type": "bool"
            }
          ],
          "indexed": false,
          "internalType": "struct SimpleSavingCircle.StageStats",
          "name": "stats",
          "type": "tuple"
        }
      ],
      "name": "NewSavingCircleCreated",
      "type": "event"
    },
    {
      "anonymous": false,
      "inputs": [
        {
          "indexed": false,
          "internalType": "bytes32",
          "name": "circleId",
          "type": "bytes32"
        },
        {
          "indexed": false,
          "internalType": "address",
          "name": "participant",
          "type": "address"
        }
      ],
      "name": "PaidRound",
      "type": "event"
    },
    {
      "anonymous": false,
      "inputs": [
        {
          "indexed": false,
          "internalType": "bytes32",
          "name": "circleId",
          "type": "bytes32"
        },
        {
          "indexed": false,
          "internalType": "address",
          "name": "participant",
          "type": "address"
        },
        {
          "indexed": false,
          "internalType": "uint256",
          "name": "amountPaid",
          "type": "uint256"
        }
      ],
      "name": "PartiallyPaidRound",
      "type": "event"
    },
    {
      "anonymous": false,
      "inputs": [
        {
          "indexed": false,
          "internalType": "bytes32",
          "name": "circleId",
          "type": "bytes32"
        },
        {
          "indexed": false,
          "internalType": "address",
          "name": "participant",
          "type": "address"
        }
      ],
      "name": "RegisteredNewUserAndPaidDeposit",
      "type": "event"
    },
    {
      "anonymous": false,
      "inputs": [
        {
          "indexed": false,
          "internalType": "bytes32",
          "name": "circleId",
          "type": "bytes32"
        },
        {
          "indexed": false,
          "internalType": "address",
          "name": "winner",
          "type": "address"
        },
        {
          "indexed": false,
          "internalType": "bool",
          "name": "success",
          "type": "bool"
        }
      ],
      "name": "RoundEndedAndUserWasPaidOut",
      "type": "event"
    },
    {
      "anonymous": false,
      "inputs": [
        {
          "indexed": false,
          "internalType": "bytes32",
          "name": "circleId",
          "type": "bytes32"
        },
        {
          "indexed": false,
          "internalType": "address",
          "name": "participant",
          "type": "address"
        }
      ],
      "name": "StartedFirstRound",
      "type": "event"
    },
    {
      "inputs": [
        {
          "internalType": "bytes32",
          "name": "circleId",
          "type": "bytes32"
        }
      ],
      "name": "completeCircle",
      "outputs": [],
      "stateMutability": "nonpayable",
      "type": "function"
    },
    {
      "inputs": [
        {
          "internalType": "uint256",
          "name": "_saveAmountPerRound",
          "type": "uint256"
        },
        {
          "internalType": "uint256",
          "name": "_groupSize",
          "type": "uint256"
        },
        {
          "internalType": "uint256",
          "name": "_payTime",
          "type": "uint256"
        },
        {
          "internalType": "string",
          "name": "cid",
          "type": "string"
        }
      ],
      "name": "createSavingCircle",
      "outputs": [],
      "stateMutability": "payable",
      "type": "function"
    },
    {
      "inputs": [
        {
          "internalType": "bytes32",
          "name": "circleId",
          "type": "bytes32"
        }
      ],
      "name": "emergencyWithdrawal",
      "outputs": [],
      "stateMutability": "nonpayable",
      "type": "function"
    },
    {
      "inputs": [
        {
          "internalType": "bytes32",
          "name": "circleId",
          "type": "bytes32"
        }
      ],
      "name": "endRoundAndStartNextRound",
      "outputs": [],
      "stateMutability": "nonpayable",
      "type": "function"
    },
    {
      "inputs": [
        {
          "internalType": "bytes32",
          "name": "circleId",
          "type": "bytes32"
        }
      ],
      "name": "extendDeadline",
      "outputs": [],
      "stateMutability": "nonpayable",
      "type": "function"
    },
    {
      "inputs": [],
      "name": "fee",
      "outputs": [
        {
          "internalType": "uint256",
          "name": "",
          "type": "uint256"
        }
      ],
      "stateMutability": "view",
      "type": "function"
    },
    {
      "inputs": [],
      "name": "getRandomNumber",
      "outputs": [
        {
          "internalType": "bytes32",
          "name": "requestId",
          "type": "bytes32"
        }
      ],
      "stateMutability": "nonpayable",
      "type": "function"
    },
    {
      "inputs": [],
      "name": "keyHash",
      "outputs": [
        {
          "internalType": "bytes32",
          "name": "",
          "type": "bytes32"
        }
      ],
      "stateMutability": "view",
      "type": "function"
    },
    {
      "inputs": [
        {
          "internalType": "bytes32",
          "name": "circleId",
          "type": "bytes32"
        }
      ],
      "name": "makePayment",
      "outputs": [],
      "stateMutability": "payable",
      "type": "function"
    },
    {
      "inputs": [],
      "name": "randomResult",
      "outputs": [
        {
          "internalType": "uint256",
          "name": "",
          "type": "uint256"
        }
      ],
      "stateMutability": "view",
      "type": "function"
    },
    {
      "inputs": [
        {
          "internalType": "bytes32",
          "name": "requestId",
          "type": "bytes32"
        },
        {
          "internalType": "uint256",
          "name": "randomness",
          "type": "uint256"
        }
      ],
      "name": "rawFulfillRandomness",
      "outputs": [],
      "stateMutability": "nonpayable",
      "type": "function"
    },
    {
      "inputs": [
        {
          "internalType": "bytes32",
          "name": "circleId",
          "type": "bytes32"
        }
      ],
      "name": "registerToSavingCircle",
      "outputs": [],
      "stateMutability": "payable",
      "type": "function"
    },
    {
      "inputs": [
        {
          "internalType": "bytes32",
          "name": "circleId",
          "type": "bytes32"
        }
      ],
      "name": "startFirstRound",
      "outputs": [],
      "stateMutability": "nonpayable",
      "type": "function"
    }
  ],
  "bytecode": "0x60c060405234801561001057600080fd5b507f2ca8e0c643bde4c2e08ab1fa0da3401adad7734d00000000000000000000000060a0527f326c977e6efc84e512bb9c30f76e30c160ed06fb0000000000000000000000006080527f79d3d8832d904592c0bf9818b621522c988bb8b0c05cdc3b15aea1b6e8db0c1560035567016345785d8a000060045573326c977e6efc84e512bb9c30f76e30c160ed06fb732ca8e0c643bde4c2e08ab1fa0da3401adad7734d6129f26100d960003960008181610e2301526123800152600061235101526129f26000f3fe6080604052600436106100d25760003560e01c806394985ddd1161007f578063ddca3f4311610059578063ddca3f43146101df578063de72507f146101f5578063e209aabd14610208578063f42c51ca1461022857600080fd5b806394985ddd1461018a578063999e3320146101aa578063dbdff2c1146101ca57600080fd5b806361728f39116100b057806361728f39146101415780636fbec0cd146101575780637eac9f7c1461017757600080fd5b8063254d7ee0146100d757806342619f66146100f957806350e8f9be14610121575b600080fd5b3480156100e357600080fd5b506100f76100f23660046125e4565b61023b565b005b34801561010557600080fd5b5061010f60055481565b60405190815260200160405180910390f35b34801561012d57600080fd5b506100f761013c3660046125e4565b6104d7565b34801561014d57600080fd5b5061010f60035481565b34801561016357600080fd5b506100f76101723660046125e4565b6105f3565b6100f76101853660046125e4565b6109f6565b34801561019657600080fd5b506100f76101a53660046125fc565b610e18565b3480156101b657600080fd5b506100f76101c53660046125e4565b610e96565b3480156101d657600080fd5b5061010f611589565b3480156101eb57600080fd5b5061010f60045481565b6100f761020336600461261d565b61159e565b34801561021457600080fd5b506100f76102233660046125e4565b611b79565b6100f76102363660046125e4565b611d66565b6000818152600160205260409020600201546001600160a01b03163381146102b85760405162461bcd60e51b815260206004820152602560248201527f4f6e6c792074686520686f73742063616e2063616c6c20746869732066756e636044820152643a34b7b71760d91b60648201526084015b60405180910390fd5b8160008060008381526001602052604090206008015460ff1660038111156102f057634e487b7160e01b600052602160045260246000fd5b1461032f5760405162461bcd60e51b815260206004820152600f60248201526e496e636f727265637420537461676560881b60448201526064016102af565b6000848152600160205260409020600d0154156103b45760405162461bcd60e51b815260206004820152603f60248201527f546869732066756e6374696f6e2063616e206f6e6c792062652063616c6c656460448201527f20696620726f756e647320686176656e27742073746172746564207965742e0060648201526084016102af565b60008481526001602052604090206005810154600a90910154146104665760405162461bcd60e51b815260206004820152605260248201527f546865726520617265207374696c6c2073706f7473206c6566742e20416c6c2060448201527f73706f7473206d7573742062652066696c6c656420696e206f7264657220746f60648201527f2073746172742074686520726f756e64732e0000000000000000000000000000608482015260a4016102af565b60008481526001602081815260409283902060088101805460ff191684179055600d81019290925542600990920191909155815186815233918101919091527fbe5e92ff0040998aa6e96082833ef15c05d030093a32f549587b6056a7d138e091015b60405180910390a150505050565b6000818152600160205260409020600201546001600160a01b031633811461054f5760405162461bcd60e51b815260206004820152602560248201527f4f6e6c792074686520686f73742063616e2063616c6c20746869732066756e636044820152643a34b7b71760d91b60648201526084016102af565b8160038060008381526001602052604090206008015460ff16600381111561058757634e487b7160e01b600052602160045260246000fd5b146105c65760405162461bcd60e51b815260206004820152600f60248201526e496e636f727265637420537461676560881b60448201526064016102af565b60008481526001602052604081206003018054600792906105e890849061288e565b909155505050505050565b6000818152600160205260409020600201546001600160a01b031633811461066b5760405162461bcd60e51b815260206004820152602560248201527f4f6e6c792074686520686f73742063616e2063616c6c20746869732066756e636044820152643a34b7b71760d91b60648201526084016102af565b8160038060008381526001602052604090206008015460ff1660038111156106a357634e487b7160e01b600052602160045260246000fd5b146106e25760405162461bcd60e51b815260206004820152600f60248201526e496e636f727265637420537461676560881b60448201526064016102af565b600047116107325760405162461bcd60e51b815260206004820152601760248201527f4e6f2066756e647320746f20646973747269627574652e00000000000000000060448201526064016102af565b606060005b6000868152600160205260409020600a015460ff821610156108645760008681526001602052604081206006018054600292919060ff851690811061078c57634e487b7160e01b600052603260045260246000fd5b60009182526020808320909101546001600160a01b0316835282019290925260400190206002015460ff1615610852576000868152600160205260409020600601805460ff83169081106107f057634e487b7160e01b600052603260045260246000fd5b9060005260206000200160009054906101000a90046001600160a01b0316828260ff168151811061083157634e487b7160e01b600052603260045260246000fd5b60200260200101906001600160a01b031690816001600160a01b0316815250505b8061085c81612946565b915050610737565b5060005b81518160ff1610156109ee576000828260ff168151811061089957634e487b7160e01b600052603260045260246000fd5b60200260200101516001600160a01b03168351476108b791906128a6565b604051600081818185875af1925050503d80600081146108f3576040519150601f19603f3d011682016040523d82523d6000602084013e6108f8565b606091505b50509050806109495760405162461bcd60e51b815260206004820152601460248201527f4661696c656420746f2073656e6420457468657200000000000000000000000060448201526064016102af565b7f8e5f31a1ff0b4669c4299f9426bf1ad20c66ae38065cf7be02f95a77040bccac8747858560ff168151811061098f57634e487b7160e01b600052603260045260246000fd5b60200260200101518651476109a491906128a6565b6040516109d3949392919093845260208401929092526001600160a01b03166040830152606082015260800190565b60405180910390a150806109e681612946565b915050610868565b505050505050565b33600090815260026020526040902054600160a01b900460ff16801515600114610a885760405162461bcd60e51b815260206004820152602260248201527f55736572206973206e6f74207265676973746572656420666f7220436972636c60448201527f652e00000000000000000000000000000000000000000000000000000000000060648201526084016102af565b8160018060008381526001602052604090206008015460ff166003811115610ac057634e487b7160e01b600052602160045260246000fd5b14610aff5760405162461bcd60e51b815260206004820152600f60248201526e496e636f727265637420537461676560881b60448201526064016102af565b3360009081526002602081905260409091200154349060ff1615610b8b5760405162461bcd60e51b815260206004820152603e60248201527f596f7520616c7265616479207061696420666f72207468697320726f756e642e60448201527f205761697420756e74696c206e65787420726f756e64207374617274732e000060648201526084016102af565b600085815260016020526040902060090154421015610c125760405162461bcd60e51b815260206004820152603c60248201527f526f756e6420686173206e6f742073746172746564207965742120576169742060448201527f666f7220686f737420746f2073746172742074686520726f756e642e0000000060648201526084016102af565b336000908152600260209081526040808320600190810154898552925290912060040154610c4091906128d9565b8111158015610c4f5750600081115b610c9b5760405162461bcd60e51b815260206004820152601260248201527f496e636f7272656374205061796d656e742e000000000000000000000000000060448201526064016102af565b33600090815260026020526040812060010154610cb990839061288e565b600087815260016020526040902060040154909150811415610d5057336000908152600260208181526040808420909201805460ff1916600190811790915589845290528120600b01805491610d0e8361292b565b9091555050604080518781523360208201527fbdd7799532fdd2516e061df87f6d81d5f132518f126e7d3d5e9b995d0da94ae5910160405180910390a1610db8565b3360009081526002602052604081206001018054849290610d7290849061288e565b9091555050604080518781523360208201529081018390527fb0a6c8ded960e876add46f1c716aa8f705c7b8c9f133ad363382b9848925b2da9060600160405180910390a15b6000868152600160205260409020600a810154600b9091015414156109ee57604080518781524760208201527f0653cadc2b247430ac1cc8ed0593f830780bad34c4755208b76c72784ec2e20391015b60405180910390a1505050505050565b336001600160a01b037f00000000000000000000000000000000000000000000000000000000000000001614610e905760405162461bcd60e51b815260206004820152601f60248201527f4f6e6c7920565246436f6f7264696e61746f722063616e2066756c66696c6c0060448201526064016102af565b60055550565b6000818152600160205260409020600201546001600160a01b0316338114610f0e5760405162461bcd60e51b815260206004820152602560248201527f4f6e6c792074686520686f73742063616e2063616c6c20746869732066756e636044820152643a34b7b71760d91b60648201526084016102af565b8160018060008381526001602052604090206008015460ff166003811115610f4657634e487b7160e01b600052602160045260246000fd5b14610f855760405162461bcd60e51b815260206004820152600f60248201526e496e636f727265637420537461676560881b60448201526064016102af565b600084815260016020526040902060030154610fa490620151806128ba565b600085815260016020526040902060090154610fc0919061288e565b4211156110ad57600084815260016020526040902060088101805460ff191660039081179091550154610ff690620151806128ba565b600085815260016020526040902060090154611012919061288e565b4211156110ad5760405162461bcd60e51b815260206004820152604960248201527f43414e4e4f5420454e4420524f554e4420414654455220444541444c494e452e60448201527f20457874656e6420446561646c696e65206f7220456d657267656e637920576960648201527f746864726177616c2e0000000000000000000000000000000000000000000000608482015260a4016102af565b60005b6000858152600160205260409020600a015460ff821610156112565760008581526001602052604081206006018054600292919060ff851690811061110557634e487b7160e01b600052603260045260246000fd5b60009182526020808320909101546001600160a01b0316835282019290925260400190206002015460ff1661124457600085815260016020526040812060088101805460ff191660031790556006018054600292919060ff851690811061117c57634e487b7160e01b600052603260045260246000fd5b60009182526020808320909101546001600160a01b0316835282019290925260400190206002015460ff1615156001146112445760405162461bcd60e51b815260206004820152604860248201527f41207061727469636970616e74206469646e27742066756c6c79207061792e2060448201527f457874656e6420446561646c696e65206f7220456d657267656e63792057697460648201527f6864726177616c2e000000000000000000000000000000000000000000000000608482015260a4016102af565b8061124e81612946565b9150506110b0565b5061125f611589565b50600061126b85612105565b60008681526001602052604080822060040154905192935090916001600160a01b03841691908381818185875af1925050503d80600081146112c9576040519150601f19603f3d011682016040523d82523d6000602084013e6112ce565b606091505b505090508061130e5760008681526001602081905260409091206007015460055461130e9261130892909161130291612168565b9061217b565b87612187565b8061135b5760405162461bcd60e51b815260206004820152601460248201527f4661696c656420746f2073656e6420457468657200000000000000000000000060448201526064016102af565b6000868152600160205260409020600a810154600d909101541480156113905750600086815260016020526040902060070154155b156113ec57600086815260016020908152604091829020600801805460ff1916600217905590518781527fc25873041385905b42cf4474914ad3fae42120026acc98e9304c6bb4bafed96b910160405180910390a15050611583565b6000868152600160205260408120600d018054916114098361292b565b919050555060005b6000878152600160205260409020600a015460ff821610156115135760008781526001602052604081206006018054600291839160ff861690811061146657634e487b7160e01b600052603260045260246000fd5b6000918252602080832091909101546001600160a01b0316835282810193909352604091820181206002908101805460ff1916951515959095179094558a815260019092528120600601805491929183919060ff86169081106114d957634e487b7160e01b600052603260045260246000fd5b60009182526020808320909101546001600160a01b031683528201929092526040019020600101558061150b81612946565b915050611411565b50600086815260016020526040808220600b81019290925542600990920191909155517f80083764668ebefba3c6961b7dad221c71ce296d3afe4064f0fe99dd65fcfe9490610e08908890859085909283526001600160a01b039190911660208301521515604082015260600190565b50505050565b600061159960035460045461234d565b905090565b336115eb5760405162461bcd60e51b815260206004820152601d60248201527f486f7374277320616464726573732063616e6e6f74206265207a65726f00000060448201526064016102af565b6001831180156115fc5750600c8311155b61166e5760405162461bcd60e51b815260206004820152603e60248201527f5f67726f757053697a65206d7573742062652067726561746572207468616e2060448201527f3120616e64206c657373207468616e206f7220657175616c20746f203132000060648201526084016102af565b600084116116e45760405162461bcd60e51b815260206004820152602760248201527f536176696e6720416d6f756e742063616e6e6f74206265206c6573732074686160448201527f6e2030204554480000000000000000000000000000000000000000000000000060648201526084016102af565b600182101561175b5760405162461bcd60e51b815260206004820152602360248201527f5061792054696d652063616e6e6f74206265206c657373207468616e2061206460448201527f61792e000000000000000000000000000000000000000000000000000000000060648201526084016102af565b6040516bffffffffffffffffffffffff193360601b16602082015242603482015260548101849052607481018590526094810183905260009060b401604051602081830303815290604052805190602001209050606080604051806101200160405280848152602001858152602001336001600160a01b031681526020018681526020018881526020018781526020018381526020018281526020016040518061010001604052806000600381111561182457634e487b7160e01b600052602160045260246000fd5b815260006020808301829052600160408085018290526060850184905234608086015260a0850184905260c0850184905260e09094018390529390945287815282845220835181558383015180519193611883938501929101906124d6565b5060408201516002820180546001600160a01b0319166001600160a01b03909216919091179055606082015160038201556080820151600482015560a0820151600582015560c082015180516118e391600684019160209091019061255a565b5060e082015180516118ff91600784019160209091019061255a565b506101008201518051600883018054909190829060ff1916600183600381111561193957634e487b7160e01b600052602160045260246000fd5b02179055506020828101516001808401919091556040808501516002808601919091556060808701516003870155608080880151600488015560a0880151600588015560c08801516006978801805460e0909a015115156101000261ff00199215159290921661ffff19909a16999099171790975560008c8152848652838120968701805480870182559082528682200180546001600160a01b03199081163390811790925560079098018054808801825590835287832001805490981681179097558351978801845286885287860185815288850182815292890182815288835296849052908490209751885491511515600160a01b0274ffffffffffffffffffffffffffffffffffffffffff199092166001600160a01b039190911617178755519286019290925591519301805493151560ff19949094169390931790925590517fda905514d6d808601afeed51e61cde3dc2b500336339b4eb6de71bd7c6babf619350611abe92508691909182526001600160a01b0316602082015260400190565b60405180910390a17f3b2871ed1081787789e2d1ff58c132fda5638b5325d2b930997eee038f465487838533888b8b888860405180610100016040528060006003811115611b1c57634e487b7160e01b600052602160045260246000fd5b81526020016000815260200160018152602001600081526020013481526020016000815260200160001515815260200160001515815250604051611b68999897969594939291906127a3565b60405180910390a150505050505050565b6000818152600160205260409020600201546001600160a01b0316338114611bf15760405162461bcd60e51b815260206004820152602560248201527f4f6e6c792074686520686f73742063616e2063616c6c20746869732066756e636044820152643a34b7b71760d91b60648201526084016102af565b8160028060008381526001602052604090206008015460ff166003811115611c2957634e487b7160e01b600052602160045260246000fd5b14611c685760405162461bcd60e51b815260206004820152600f60248201526e496e636f727265637420537461676560881b60448201526064016102af565b600084815260016020526040902060070154158015611c9d57506000848152600160205260409020600a810154600d90910154145b611d365760405162461bcd60e51b8152602060048201526044602482018190527f4e6f742065766572796f6e6520686173206265656e2070616964206f75742073908201527f6f20736176696e6720636972636c652063616e6e6f7420626520636f6d706c6560648201527f7465642e00000000000000000000000000000000000000000000000000000000608482015260a4016102af565b6040518481527fbd832f9c6833c0ee1bb756dfd518f077a8228fa41d7c45fe37605fd240ce9023906020016104c9565b8060008060008381526001602052604090206008015460ff166003811115611d9e57634e487b7160e01b600052602160045260246000fd5b14611ddd5760405162461bcd60e51b815260206004820152600f60248201526e496e636f727265637420537461676560881b60448201526064016102af565b33600090815260026020526040902054600160a01b900460ff1615611e445760405162461bcd60e51b815260206004820152601b60248201527f596f752061726520616c726561647920726567697374657265642e000000000060448201526064016102af565b60008381526001602052604090206005810154600a9091015410611ed05760405162461bcd60e51b815260206004820152602260248201527f5468652063757272656e7420736176696e6720636972636c652069732066756c60448201527f6c2e00000000000000000000000000000000000000000000000000000000000060648201526084016102af565b6000838152600160205260409020600401543414611f305760405162461bcd60e51b815260206004820152600a60248201527f4e4f5420454e4f5547480000000000000000000000000000000000000000000060448201526064016102af565b6000838152600160205260408120600a01805491611f4d8361292b565b90915550506000838152600160205260408120600c018054349290611f7390849061288e565b9091555050600083815260016020818152604080842060068101805480860182559086528386200180546001600160a01b03199081163390811790925560079092018054808701825590875284872001805490921681179091558151608081018352818152808401858152818401878152606083018881528489526002808852988690209351845493511515600160a01b0274ffffffffffffffffffffffffffffffffffffffffff199094166001600160a01b03909116179290921783555195820195909555935193909401805493151560ff19909416939093179092558151868152908101929092527fda905514d6d808601afeed51e61cde3dc2b500336339b4eb6de71bd7c6babf61910160405180910390a160008381526001602052604090206005810154600a9091015414156121005760008381526001602052604090819020600e01805461ff001916610100179055517f68cab3f785508fdb3631231fc7769a1607acd54b0408b9aa4eaf89a397f9de79906120f79085815260200190565b60405180910390a15b505050565b600081815260016020819052604082206007018054600554919261212f9290916113029190612168565b8154811061214d57634e487b7160e01b600052603260045260246000fd5b6000918252602090912001546001600160a01b031692915050565b60006121748284612966565b9392505050565b6000612174828461288e565b600081815260016020526040902060070154821061220d5760405162461bcd60e51b815260206004820152602260248201527f72656d6f766557696e6e65723a20496e646578204f7574206f6620426f756e6460448201527f732e00000000000000000000000000000000000000000000000000000000000060648201526084016102af565b815b60008281526001602081905260409091206007015461222e91906128d9565b8110156122f85760008281526001602081905260409091206007019061225590839061288e565b8154811061227357634e487b7160e01b600052603260045260246000fd5b60009182526020808320909101548483526001909152604090912060070180546001600160a01b0390921691839081106122bd57634e487b7160e01b600052603260045260246000fd5b600091825260209091200180546001600160a01b0319166001600160a01b0392909216919091179055806122f08161292b565b91505061220f565b50600081815260016020526040902060070180548061232757634e487b7160e01b600052603160045260246000fd5b600082815260209020810160001990810180546001600160a01b03191690550190555050565b60007f00000000000000000000000000000000000000000000000000000000000000006001600160a01b0316634000aea07f0000000000000000000000000000000000000000000000000000000000000000848660006040516020016123bd929190918252602082015260400190565b6040516020818303038152906040526040518463ffffffff1660e01b81526004016123ea93929190612772565b602060405180830381600087803b15801561240457600080fd5b505af1158015612418573d6000803e3d6000fd5b505050506040513d601f19601f8201168201806040525081019061243c91906125c4565b5060008381526020818152604080832054815180840188905280830185905230606082015260808082018390528351808303909101815260a09091019092528151918301919091208684529290915261249690600161288e565b6000858152602081815260409182902092909255805180830187905280820184905281518082038301815260609091019091528051910120949350505050565b8280546124e2906128f0565b90600052602060002090601f016020900481019282612504576000855561254a565b82601f1061251d57805160ff191683800117855561254a565b8280016001018555821561254a579182015b8281111561254a57825182559160200191906001019061252f565b506125569291506125af565b5090565b82805482825590600052602060002090810192821561254a579160200282015b8281111561254a57825182546001600160a01b0319166001600160a01b0390911617825560209092019160019091019061257a565b5b8082111561255657600081556001016125b0565b6000602082840312156125d5578081fd5b81518015158114612174578182fd5b6000602082840312156125f5578081fd5b5035919050565b6000806040838503121561260e578081fd5b50508035926020909101359150565b60008060008060808587031215612632578182fd5b843593506020850135925060408501359150606085013567ffffffffffffffff8082111561265e578283fd5b818701915087601f830112612671578283fd5b813581811115612683576126836129a6565b604051601f8201601f19908116603f011681019083821181831017156126ab576126ab6129a6565b816040528281528a60208487010111156126c3578586fd5b82602086016020830137918201602001949094529598949750929550505050565b6000815180845260208085019450808401835b8381101561271c5781516001600160a01b0316875295820195908201906001016126f7565b509495945050505050565b60008151808452815b8181101561274c57602081850181015186830182015201612730565b8181111561275d5782602083870101525b50601f01601f19169290920160200192915050565b6001600160a01b038416815282602082015260606040820152600061279a6060830184612727565b95945050505050565b60006102008b83528060208401526127bd8184018c612727565b90506001600160a01b038a1660408401528860608401528760808401528660a084015282810360c08401526127f281876126e4565b905082810360e084015261280681866126e4565b91505082516004811061282957634e487b7160e01b600052602160045260246000fd5b610100830152602083015161012083015260408301516101408301526060830151610160830152608083015161018083015260a08301516101a083015260c083015115156101c083015260e09092015115156101e09091015298975050505050505050565b600082198211156128a1576128a161297a565b500190565b6000826128b5576128b5612990565b500490565b60008160001904831182151516156128d4576128d461297a565b500290565b6000828210156128eb576128eb61297a565b500390565b600181811c9082168061290457607f821691505b6020821081141561292557634e487b7160e01b600052602260045260246000fd5b50919050565b600060001982141561293f5761293f61297a565b5060010190565b600060ff821660ff81141561295d5761295d61297a565b60010192915050565b60008261297557612975612990565b500690565b634e487b7160e01b600052601160045260246000fd5b634e487b7160e01b600052601260045260246000fd5b634e487b7160e01b600052604160045260246000fdfea26469706673582212202ffddb316c659dba100df428e11a9b02b16cfb80cba035047e65627fb89d065364736f6c63430008040033",
  "linkReferences": {},
  "deployedLinkReferences": {}
}